{
  "_format": "hh-sol-artifact-1",
  "contractName": "FireERC20",
  "sourceName": "contracts/app/FireERC20.sol",
  "abi": [
    {
      "inputs": [
        {
          "internalType": "string",
          "name": "_name",
          "type": "string"
        },
        {
          "internalType": "string",
          "name": "_symbol",
          "type": "string"
        },
        {
          "internalType": "address",
          "name": "_admin",
          "type": "address"
        },
        {
          "internalType": "address",
          "name": "_wmbGateway",
          "type": "address"
        }
      ],
      "stateMutability": "nonpayable",
      "type": "constructor"
    },
    {
      "inputs": [],
      "name": "AccessControlBadConfirmation",
      "type": "error"
    },
    {
      "inputs": [
        {
          "internalType": "address",
          "name": "account",
          "type": "address"
        },
        {
          "internalType": "bytes32",
          "name": "neededRole",
          "type": "bytes32"
        }
      ],
      "name": "AccessControlUnauthorizedAccount",
      "type": "error"
    },
    {
      "inputs": [
        {
          "internalType": "address",
          "name": "spender",
          "type": "address"
        },
        {
          "internalType": "uint256",
          "name": "allowance",
          "type": "uint256"
        },
        {
          "internalType": "uint256",
          "name": "needed",
          "type": "uint256"
        }
      ],
      "name": "ERC20InsufficientAllowance",
      "type": "error"
    },
    {
      "inputs": [
        {
          "internalType": "address",
          "name": "sender",
          "type": "address"
        },
        {
          "internalType": "uint256",
          "name": "balance",
          "type": "uint256"
        },
        {
          "internalType": "uint256",
          "name": "needed",
          "type": "uint256"
        }
      ],
      "name": "ERC20InsufficientBalance",
      "type": "error"
    },
    {
      "inputs": [
        {
          "internalType": "address",
          "name": "approver",
          "type": "address"
        }
      ],
      "name": "ERC20InvalidApprover",
      "type": "error"
    },
    {
      "inputs": [
        {
          "internalType": "address",
          "name": "receiver",
          "type": "address"
        }
      ],
      "name": "ERC20InvalidReceiver",
      "type": "error"
    },
    {
      "inputs": [
        {
          "internalType": "address",
          "name": "sender",
          "type": "address"
        }
      ],
      "name": "ERC20InvalidSender",
      "type": "error"
    },
    {
      "inputs": [
        {
          "internalType": "address",
          "name": "spender",
          "type": "address"
        }
      ],
      "name": "ERC20InvalidSpender",
      "type": "error"
    },
    {
      "inputs": [],
      "name": "InvalidInitialization",
      "type": "error"
    },
    {
      "inputs": [],
      "name": "NotInitializing",
      "type": "error"
    },
    {
      "anonymous": false,
      "inputs": [
        {
          "indexed": true,
          "internalType": "address",
          "name": "owner",
          "type": "address"
        },
        {
          "indexed": true,
          "internalType": "address",
          "name": "spender",
          "type": "address"
        },
        {
          "indexed": false,
          "internalType": "uint256",
          "name": "value",
          "type": "uint256"
        }
      ],
      "name": "Approval",
      "type": "event"
    },
    {
      "anonymous": false,
      "inputs": [
        {
          "indexed": true,
          "internalType": "bytes32",
          "name": "messageId",
          "type": "bytes32"
        },
        {
          "indexed": true,
          "internalType": "uint256",
          "name": "fromChainId",
          "type": "uint256"
        },
        {
          "indexed": true,
          "internalType": "address",
          "name": "to",
          "type": "address"
        },
        {
          "indexed": false,
          "internalType": "uint256",
          "name": "amount",
          "type": "uint256"
        },
        {
          "indexed": false,
          "internalType": "address",
          "name": "fromSC",
          "type": "address"
        }
      ],
      "name": "CrossChainMint",
      "type": "event"
    },
    {
      "anonymous": false,
      "inputs": [
        {
          "indexed": false,
          "internalType": "uint64",
          "name": "version",
          "type": "uint64"
        }
      ],
      "name": "Initialized",
      "type": "event"
    },
    {
      "anonymous": false,
      "inputs": [
        {
          "indexed": true,
          "internalType": "bytes32",
          "name": "role",
          "type": "bytes32"
        },
        {
          "indexed": true,
          "internalType": "bytes32",
          "name": "previousAdminRole",
          "type": "bytes32"
        },
        {
          "indexed": true,
          "internalType": "bytes32",
          "name": "newAdminRole",
          "type": "bytes32"
        }
      ],
      "name": "RoleAdminChanged",
      "type": "event"
    },
    {
      "anonymous": false,
      "inputs": [
        {
          "indexed": true,
          "internalType": "bytes32",
          "name": "role",
          "type": "bytes32"
        },
        {
          "indexed": true,
          "internalType": "address",
          "name": "account",
          "type": "address"
        },
        {
          "indexed": true,
          "internalType": "address",
          "name": "sender",
          "type": "address"
        }
      ],
      "name": "RoleGranted",
      "type": "event"
    },
    {
      "anonymous": false,
      "inputs": [
        {
          "indexed": true,
          "internalType": "bytes32",
          "name": "role",
          "type": "bytes32"
        },
        {
          "indexed": true,
          "internalType": "address",
          "name": "account",
          "type": "address"
        },
        {
          "indexed": true,
          "internalType": "address",
          "name": "sender",
          "type": "address"
        }
      ],
      "name": "RoleRevoked",
      "type": "event"
    },
    {
      "anonymous": false,
      "inputs": [
        {
          "indexed": true,
          "internalType": "address",
          "name": "from",
          "type": "address"
        },
        {
          "indexed": true,
          "internalType": "address",
          "name": "to",
          "type": "address"
        },
        {
          "indexed": false,
          "internalType": "uint256",
          "name": "value",
          "type": "uint256"
        }
      ],
      "name": "Transfer",
      "type": "event"
    },
    {
      "anonymous": false,
      "inputs": [
        {
          "indexed": true,
          "internalType": "uint256",
          "name": "toChainId",
          "type": "uint256"
        },
        {
          "indexed": true,
          "internalType": "address",
          "name": "to",
          "type": "address"
        },
        {
          "indexed": false,
          "internalType": "uint256",
          "name": "amount",
          "type": "uint256"
        },
        {
          "indexed": false,
          "internalType": "address",
          "name": "toSC",
          "type": "address"
        }
      ],
      "name": "coinsReleased",
      "type": "event"
    },
    {
      "inputs": [],
      "name": "DEFAULT_ADMIN_ROLE",
      "outputs": [
        {
          "internalType": "bytes32",
          "name": "",
          "type": "bytes32"
        }
      ],
      "stateMutability": "view",
      "type": "function"
    },
    {
      "inputs": [
        {
          "internalType": "address",
          "name": "owner",
          "type": "address"
        },
        {
          "internalType": "address",
          "name": "spender",
          "type": "address"
        }
      ],
      "name": "allowance",
      "outputs": [
        {
          "internalType": "uint256",
          "name": "",
          "type": "uint256"
        }
      ],
      "stateMutability": "view",
      "type": "function"
    },
    {
      "inputs": [
        {
          "internalType": "address",
          "name": "spender",
          "type": "address"
        },
        {
          "internalType": "uint256",
          "name": "value",
          "type": "uint256"
        }
      ],
      "name": "approve",
      "outputs": [
        {
          "internalType": "bool",
          "name": "",
          "type": "bool"
        }
      ],
      "stateMutability": "nonpayable",
      "type": "function"
    },
    {
      "inputs": [
        {
          "internalType": "address",
          "name": "account",
          "type": "address"
        }
      ],
      "name": "balanceOf",
      "outputs": [
        {
          "internalType": "uint256",
          "name": "",
          "type": "uint256"
        }
      ],
      "stateMutability": "view",
      "type": "function"
    },
    {
      "inputs": [],
      "name": "decimals",
      "outputs": [
        {
          "internalType": "uint8",
          "name": "",
          "type": "uint8"
        }
      ],
      "stateMutability": "view",
      "type": "function"
    },
    {
      "inputs": [
        {
          "internalType": "uint256",
          "name": "toChain",
          "type": "uint256"
        },
        {
          "internalType": "uint256",
          "name": "gasLimit",
          "type": "uint256"
        }
      ],
      "name": "estimateFee",
      "outputs": [
        {
          "internalType": "uint256",
          "name": "",
          "type": "uint256"
        }
      ],
      "stateMutability": "view",
      "type": "function"
    },
    {
      "inputs": [
        {
          "internalType": "bytes32",
          "name": "role",
          "type": "bytes32"
        }
      ],
      "name": "getRoleAdmin",
      "outputs": [
        {
          "internalType": "bytes32",
          "name": "",
          "type": "bytes32"
        }
      ],
      "stateMutability": "view",
      "type": "function"
    },
    {
      "inputs": [
        {
          "internalType": "bytes32",
          "name": "role",
          "type": "bytes32"
        },
        {
          "internalType": "address",
          "name": "account",
          "type": "address"
        }
      ],
      "name": "grantRole",
      "outputs": [],
      "stateMutability": "nonpayable",
      "type": "function"
    },
    {
      "inputs": [
        {
          "internalType": "bytes32",
          "name": "role",
          "type": "bytes32"
        },
        {
          "internalType": "address",
          "name": "account",
          "type": "address"
        }
      ],
      "name": "hasRole",
      "outputs": [
        {
          "internalType": "bool",
          "name": "",
          "type": "bool"
        }
      ],
      "stateMutability": "view",
      "type": "function"
    },
    {
      "inputs": [
        {
          "internalType": "address",
          "name": "admin",
          "type": "address"
        },
        {
          "internalType": "address",
          "name": "_wmbGateway",
          "type": "address"
        }
      ],
      "name": "initialize",
      "outputs": [],
      "stateMutability": "nonpayable",
      "type": "function"
    },
    {
      "inputs": [],
      "name": "name",
      "outputs": [
        {
          "internalType": "string",
          "name": "",
          "type": "string"
        }
      ],
      "stateMutability": "view",
      "type": "function"
    },
    {
      "inputs": [
        {
          "internalType": "bytes32",
          "name": "role",
          "type": "bytes32"
        },
        {
          "internalType": "address",
          "name": "callerConfirmation",
          "type": "address"
        }
      ],
      "name": "renounceRole",
      "outputs": [],
      "stateMutability": "nonpayable",
      "type": "function"
    },
    {
      "inputs": [
        {
          "internalType": "bytes32",
          "name": "role",
          "type": "bytes32"
        },
        {
          "internalType": "address",
          "name": "account",
          "type": "address"
        }
      ],
      "name": "revokeRole",
      "outputs": [],
      "stateMutability": "nonpayable",
      "type": "function"
    },
    {
      "inputs": [
        {
          "internalType": "uint256[]",
          "name": "fromChainIds",
          "type": "uint256[]"
        },
        {
          "internalType": "address[]",
          "name": "froms",
          "type": "address[]"
        },
        {
          "internalType": "bool[]",
          "name": "trusted",
          "type": "bool[]"
        }
      ],
      "name": "setTrustedRemotes",
      "outputs": [],
      "stateMutability": "nonpayable",
      "type": "function"
    },
    {
      "inputs": [
        {
          "internalType": "bytes4",
          "name": "interfaceId",
          "type": "bytes4"
        }
      ],
      "name": "supportsInterface",
      "outputs": [
        {
          "internalType": "bool",
          "name": "",
          "type": "bool"
        }
      ],
      "stateMutability": "view",
      "type": "function"
    },
    {
      "inputs": [],
      "name": "symbol",
      "outputs": [
        {
          "internalType": "string",
          "name": "",
          "type": "string"
        }
      ],
      "stateMutability": "view",
      "type": "function"
    },
    {
      "inputs": [],
      "name": "totalSupply",
      "outputs": [
        {
          "internalType": "uint256",
          "name": "",
          "type": "uint256"
        }
      ],
      "stateMutability": "view",
      "type": "function"
    },
    {
      "inputs": [
        {
          "internalType": "address",
          "name": "to",
          "type": "address"
        },
        {
          "internalType": "uint256",
          "name": "value",
          "type": "uint256"
        }
      ],
      "name": "transfer",
      "outputs": [
        {
          "internalType": "bool",
          "name": "",
          "type": "bool"
        }
      ],
      "stateMutability": "nonpayable",
      "type": "function"
    },
    {
      "inputs": [
        {
          "internalType": "address",
          "name": "from",
          "type": "address"
        },
        {
          "internalType": "address",
          "name": "to",
          "type": "address"
        },
        {
          "internalType": "uint256",
          "name": "value",
          "type": "uint256"
        }
      ],
      "name": "transferFrom",
      "outputs": [
        {
          "internalType": "bool",
          "name": "",
          "type": "bool"
        }
      ],
      "stateMutability": "nonpayable",
      "type": "function"
    },
    {
      "inputs": [
        {
          "internalType": "uint256",
          "name": "",
          "type": "uint256"
        },
        {
          "internalType": "address",
          "name": "",
          "type": "address"
        }
      ],
      "name": "trustedRemotes",
      "outputs": [
        {
          "internalType": "bool",
          "name": "",
          "type": "bool"
        }
      ],
      "stateMutability": "view",
      "type": "function"
    },
    {
      "inputs": [
        {
          "internalType": "uint256",
          "name": "toChainId",
          "type": "uint256"
        },
        {
          "internalType": "address",
          "name": "toSC",
          "type": "address"
        },
        {
          "internalType": "address",
          "name": "toUser",
          "type": "address"
        },
        {
          "internalType": "uint256",
          "name": "amount",
          "type": "uint256"
        },
        {
          "internalType": "uint256",
          "name": "gasLimit",
          "type": "uint256"
        }
      ],
      "name": "unlockCoins",
      "outputs": [],
      "stateMutability": "payable",
      "type": "function"
    },
    {
      "inputs": [],
      "name": "wmbGateway",
      "outputs": [
        {
          "internalType": "address",
          "name": "",
          "type": "address"
        }
      ],
      "stateMutability": "view",
      "type": "function"
    },
    {
      "inputs": [
        {
          "internalType": "bytes",
          "name": "data",
          "type": "bytes"
        },
        {
          "internalType": "bytes32",
          "name": "messageId",
          "type": "bytes32"
        },
        {
          "internalType": "uint256",
          "name": "fromChainId",
          "type": "uint256"
        },
        {
          "internalType": "address",
          "name": "from",
          "type": "address"
        }
      ],
      "name": "wmbReceive",
      "outputs": [],
      "stateMutability": "nonpayable",
      "type": "function"
    }
  ],
  "bytecode": "0x60806040523480156200001157600080fd5b506040516200341e3803806200341e8339818101604052810190620000379190620005fe565b838381600690816200004a9190620008f9565b5080600790816200005c9190620008f9565b5050506200007182826200007b60201b60201c565b5050505062000a54565b60006200008d6200026960201b60201c565b905060008160000160089054906101000a900460ff1615905060008260000160009054906101000a900467ffffffffffffffff1690506000808267ffffffffffffffff16148015620000dc5750825b9050600060018367ffffffffffffffff1614801562000112575060003073ffffffffffffffffffffffffffffffffffffffff163b145b90508115801562000121575080155b1562000159576040517ff92ee8a900000000000000000000000000000000000000000000000000000000815260040160405180910390fd5b60018560000160006101000a81548167ffffffffffffffff021916908367ffffffffffffffff1602179055508315620001aa5760018560000160086101000a81548160ff0219169083151502179055505b620001bf6000801b886200029160201b60201c565b5085600160006101000a81548173ffffffffffffffffffffffffffffffffffffffff021916908373ffffffffffffffffffffffffffffffffffffffff1602179055508315620002605760008560000160086101000a81548160ff0219169083151502179055507fc7f505b2f371ae2175ee4913f4499e1f2633a7b5936321eed1cdaeb6115181d2600160405162000257919062000a37565b60405180910390a15b50505050505050565b60007ff0c57e16840df040f15088dc2f81fe391c3923bec73e23a9662efc9c229c6a00905090565b6000620002a583836200039460201b60201c565b6200038957600160008085815260200190815260200160002060000160008473ffffffffffffffffffffffffffffffffffffffff1673ffffffffffffffffffffffffffffffffffffffff16815260200190815260200160002060006101000a81548160ff02191690831515021790555062000325620003fe60201b60201c565b73ffffffffffffffffffffffffffffffffffffffff168273ffffffffffffffffffffffffffffffffffffffff16847f2f8788117e7eff1d82e926ec794901d17c78024a50270940304540a733656f0d60405160405180910390a4600190506200038e565b600090505b92915050565b600080600084815260200190815260200160002060000160008373ffffffffffffffffffffffffffffffffffffffff1673ffffffffffffffffffffffffffffffffffffffff16815260200190815260200160002060009054906101000a900460ff16905092915050565b600033905090565b6000604051905090565b600080fd5b600080fd5b600080fd5b600080fd5b6000601f19601f8301169050919050565b7f4e487b7100000000000000000000000000000000000000000000000000000000600052604160045260246000fd5b6200046f8262000424565b810181811067ffffffffffffffff8211171562000491576200049062000435565b5b80604052505050565b6000620004a662000406565b9050620004b4828262000464565b919050565b600067ffffffffffffffff821115620004d757620004d662000435565b5b620004e28262000424565b9050602081019050919050565b60005b838110156200050f578082015181840152602081019050620004f2565b60008484015250505050565b6000620005326200052c84620004b9565b6200049a565b9050828152602081018484840111156200055157620005506200041f565b5b6200055e848285620004ef565b509392505050565b600082601f8301126200057e576200057d6200041a565b5b8151620005908482602086016200051b565b91505092915050565b600073ffffffffffffffffffffffffffffffffffffffff82169050919050565b6000620005c68262000599565b9050919050565b620005d881620005b9565b8114620005e457600080fd5b50565b600081519050620005f881620005cd565b92915050565b600080600080608085870312156200061b576200061a62000410565b5b600085015167ffffffffffffffff8111156200063c576200063b62000415565b5b6200064a8782880162000566565b945050602085015167ffffffffffffffff8111156200066e576200066d62000415565b5b6200067c8782880162000566565b93505060406200068f87828801620005e7565b9250506060620006a287828801620005e7565b91505092959194509250565b600081519050919050565b7f4e487b7100000000000000000000000000000000000000000000000000000000600052602260045260246000fd5b600060028204905060018216806200070157607f821691505b602082108103620007175762000716620006b9565b5b50919050565b60008190508160005260206000209050919050565b60006020601f8301049050919050565b600082821b905092915050565b600060088302620007817fffffffffffffffffffffffffffffffffffffffffffffffffffffffffffffffff8262000742565b6200078d868362000742565b95508019841693508086168417925050509392505050565b6000819050919050565b6000819050919050565b6000620007da620007d4620007ce84620007a5565b620007af565b620007a5565b9050919050565b6000819050919050565b620007f683620007b9565b6200080e6200080582620007e1565b8484546200074f565b825550505050565b600090565b6200082562000816565b62000832818484620007eb565b505050565b5b818110156200085a576200084e6000826200081b565b60018101905062000838565b5050565b601f821115620008a95762000873816200071d565b6200087e8462000732565b810160208510156200088e578190505b620008a66200089d8562000732565b83018262000837565b50505b505050565b600082821c905092915050565b6000620008ce60001984600802620008ae565b1980831691505092915050565b6000620008e98383620008bb565b9150826002028217905092915050565b6200090482620006ae565b67ffffffffffffffff81111562000920576200091f62000435565b5b6200092c8254620006e8565b620009398282856200085e565b600060209050601f8311600181146200097157600084156200095c578287015190505b620009688582620008db565b865550620009d8565b601f19841662000981866200071d565b60005b82811015620009ab5784890151825560018201915060208501945060208101905062000984565b86831015620009cb5784890151620009c7601f891682620008bb565b8355505b6001600288020188555050505b505050505050565b6000819050919050565b600067ffffffffffffffff82169050919050565b600062000a1f62000a1962000a1384620009e0565b620007af565b620009ea565b9050919050565b62000a3181620009fe565b82525050565b600060208201905062000a4e600083018462000a26565b92915050565b6129ba8062000a646000396000f3fe60806040526004361061013f5760003560e01c806336568abe116100b657806395d89b411161006f57806395d89b4114610484578063a217fddf146104af578063a9059cbb146104da578063d547741f14610517578063dd62ed3e14610540578063e3d4683b1461057d5761013f565b806336568abe146103665780633a1a5b761461038f578063485cc955146103b857806370a08231146103e15780637f34071d1461041e57806391d14854146104475761013f565b806318160ddd1161010857806318160ddd1461024257806323b872dd1461026d578063248a9ca3146102aa5780632f2ff15d146102e75780633088a5f914610310578063313ce5671461033b5761013f565b8062e1d8d01461014457806301ffc9a71461018157806306fdde03146101be57806309188652146101e9578063095ea7b314610205575b600080fd5b34801561015057600080fd5b5061016b60048036038101906101669190611b64565b6105ba565b6040516101789190611bb3565b60405180910390f35b34801561018d57600080fd5b506101a860048036038101906101a39190611c26565b610661565b6040516101b59190611c6e565b60405180910390f35b3480156101ca57600080fd5b506101d36106db565b6040516101e09190611d19565b60405180910390f35b61020360048036038101906101fe9190611d99565b61076d565b005b34801561021157600080fd5b5061022c60048036038101906102279190611e14565b610825565b6040516102399190611c6e565b60405180910390f35b34801561024e57600080fd5b50610257610848565b6040516102649190611bb3565b60405180910390f35b34801561027957600080fd5b50610294600480360381019061028f9190611e54565b610852565b6040516102a19190611c6e565b60405180910390f35b3480156102b657600080fd5b506102d160048036038101906102cc9190611edd565b610881565b6040516102de9190611f19565b60405180910390f35b3480156102f357600080fd5b5061030e60048036038101906103099190611f34565b6108a0565b005b34801561031c57600080fd5b506103256108c2565b6040516103329190611f83565b60405180910390f35b34801561034757600080fd5b506103506108e8565b60405161035d9190611fba565b60405180910390f35b34801561037257600080fd5b5061038d60048036038101906103889190611f34565b6108f1565b005b34801561039b57600080fd5b506103b660048036038101906103b1919061203a565b61096c565b005b3480156103c457600080fd5b506103df60048036038101906103da91906120c2565b610aad565b005b3480156103ed57600080fd5b5061040860048036038101906104039190612102565b610c83565b6040516104159190611bb3565b60405180910390f35b34801561042a57600080fd5b5061044560048036038101906104409190612231565b610ccc565b005b34801561045357600080fd5b5061046e60048036038101906104699190611f34565b610e64565b60405161047b9190611c6e565b60405180910390f35b34801561049057600080fd5b50610499610ece565b6040516104a69190611d19565b60405180910390f35b3480156104bb57600080fd5b506104c4610f60565b6040516104d19190611f19565b60405180910390f35b3480156104e657600080fd5b5061050160048036038101906104fc9190611e14565b610f67565b60405161050e9190611c6e565b60405180910390f35b34801561052357600080fd5b5061053e60048036038101906105399190611f34565b610f8a565b005b34801561054c57600080fd5b50610567600480360381019061056291906120c2565b610fac565b6040516105749190611bb3565b60405180910390f35b34801561058957600080fd5b506105a4600480360381019061059f91906122e5565b611033565b6040516105b19190611c6e565b60405180910390f35b6000600160009054906101000a900473ffffffffffffffffffffffffffffffffffffffff1673ffffffffffffffffffffffffffffffffffffffff1662e1d8d084846040518363ffffffff1660e01b8152600401610618929190612325565b602060405180830381865afa158015610635573d6000803e3d6000fd5b505050506040513d601f19601f820116820180604052508101906106599190612363565b905092915050565b60007f7965db0b000000000000000000000000000000000000000000000000000000007bffffffffffffffffffffffffffffffffffffffffffffffffffffffff1916827bffffffffffffffffffffffffffffffffffffffffffffffffffffffff191614806106d457506106d382611062565b5b9050919050565b6060600680546106ea906123bf565b80601f0160208091040260200160405190810160405280929190818152602001828054610716906123bf565b80156107635780601f1061073857610100808354040283529160200191610763565b820191906000526020600020905b81548152906001019060200180831161074657829003601f168201915b5050505050905090565b600061077986836105ba565b9050826008600082825461078d919061241f565b9250508190555061079e33846110cc565b6107cb868686866040516020016107b6929190612453565b6040516020818303038152906040528461114e565b508373ffffffffffffffffffffffffffffffffffffffff16867f3e22da493d252477a3bcb7214ebe231c7dcb38b3f74cc9d45ec75b2f71f63120858860405161081592919061247c565b60405180910390a3505050505050565b6000806108306111fd565b905061083d818585611205565b600191505092915050565b6000600854905090565b60008061085d6111fd565b905061086a858285611217565b6108758585856112ab565b60019150509392505050565b6000806000838152602001908152602001600020600101549050919050565b6108a982610881565b6108b28161139f565b6108bc83836113b3565b50505050565b600160009054906101000a900473ffffffffffffffffffffffffffffffffffffffff1681565b60006012905090565b6108f96111fd565b73ffffffffffffffffffffffffffffffffffffffff168173ffffffffffffffffffffffffffffffffffffffff161461095d576040517f6697b23200000000000000000000000000000000000000000000000000000000815260040160405180910390fd5b61096782826114a4565b505050565b600160009054906101000a900473ffffffffffffffffffffffffffffffffffffffff1673ffffffffffffffffffffffffffffffffffffffff163373ffffffffffffffffffffffffffffffffffffffff16146109fc576040517f08c379a00000000000000000000000000000000000000000000000000000000081526004016109f390612517565b60405180910390fd5b6002600083815260200190815260200160002060008273ffffffffffffffffffffffffffffffffffffffff1673ffffffffffffffffffffffffffffffffffffffff16815260200190815260200160002060009054906101000a900460ff16610a99576040517f08c379a0000000000000000000000000000000000000000000000000000000008152600401610a9090612583565b60405180910390fd5b610aa68585858585611596565b5050505050565b6000610ab761162a565b905060008160000160089054906101000a900460ff1615905060008260000160009054906101000a900467ffffffffffffffff1690506000808267ffffffffffffffff16148015610b055750825b9050600060018367ffffffffffffffff16148015610b3a575060003073ffffffffffffffffffffffffffffffffffffffff163b145b905081158015610b48575080155b15610b7f576040517ff92ee8a900000000000000000000000000000000000000000000000000000000815260040160405180910390fd5b60018560000160006101000a81548167ffffffffffffffff021916908367ffffffffffffffff1602179055508315610bcf5760018560000160086101000a81548160ff0219169083151502179055505b610bdc6000801b886113b3565b5085600160006101000a81548173ffffffffffffffffffffffffffffffffffffffff021916908373ffffffffffffffffffffffffffffffffffffffff1602179055508315610c7a5760008560000160086101000a81548160ff0219169083151502179055507fc7f505b2f371ae2175ee4913f4499e1f2633a7b5936321eed1cdaeb6115181d26001604051610c7191906125fc565b60405180910390a15b50505050505050565b6000600360008373ffffffffffffffffffffffffffffffffffffffff1673ffffffffffffffffffffffffffffffffffffffff168152602001908152602001600020549050919050565b610cd96000801b33610e64565b610d18576040517f08c379a0000000000000000000000000000000000000000000000000000000008152600401610d0f90612689565b60405180910390fd5b8383905086869050148015610d3257508181905084849050145b610d71576040517f08c379a0000000000000000000000000000000000000000000000000000000008152600401610d68906126f5565b60405180910390fd5b60005b86869050811015610e5b57828282818110610d9257610d91612715565b5b9050602002016020810190610da79190612770565b60026000898985818110610dbe57610dbd612715565b5b9050602002013581526020019081526020016000206000878785818110610de857610de7612715565b5b9050602002016020810190610dfd9190612102565b73ffffffffffffffffffffffffffffffffffffffff1673ffffffffffffffffffffffffffffffffffffffff16815260200190815260200160002060006101000a81548160ff0219169083151502179055508080600101915050610d74565b50505050505050565b600080600084815260200190815260200160002060000160008373ffffffffffffffffffffffffffffffffffffffff1673ffffffffffffffffffffffffffffffffffffffff16815260200190815260200160002060009054906101000a900460ff16905092915050565b606060078054610edd906123bf565b80601f0160208091040260200160405190810160405280929190818152602001828054610f09906123bf565b8015610f565780601f10610f2b57610100808354040283529160200191610f56565b820191906000526020600020905b815481529060010190602001808311610f3957829003601f168201915b5050505050905090565b6000801b81565b600080610f726111fd565b9050610f7f8185856112ab565b600191505092915050565b610f9382610881565b610f9c8161139f565b610fa683836114a4565b50505050565b6000600460008473ffffffffffffffffffffffffffffffffffffffff1673ffffffffffffffffffffffffffffffffffffffff16815260200190815260200160002060008373ffffffffffffffffffffffffffffffffffffffff1673ffffffffffffffffffffffffffffffffffffffff16815260200190815260200160002054905092915050565b60026020528160005260406000206020528060005260406000206000915091509054906101000a900460ff1681565b60007f01ffc9a7000000000000000000000000000000000000000000000000000000007bffffffffffffffffffffffffffffffffffffffffffffffffffffffff1916827bffffffffffffffffffffffffffffffffffffffffffffffffffffffff1916149050919050565b600073ffffffffffffffffffffffffffffffffffffffff168273ffffffffffffffffffffffffffffffffffffffff160361113e5760006040517f96c6fd1e0000000000000000000000000000000000000000000000000000000081526004016111359190611f83565b60405180910390fd5b61114a82600083611652565b5050565b6000600160009054906101000a900473ffffffffffffffffffffffffffffffffffffffff1673ffffffffffffffffffffffffffffffffffffffff1663fe39827b838787876040518563ffffffff1660e01b81526004016111b0939291906127f2565b60206040518083038185885af11580156111ce573d6000803e3d6000fd5b50505050506040513d601f19601f820116820180604052508101906111f39190612845565b9050949350505050565b600033905090565b611212838383600161187a565b505050565b60006112238484610fac565b90507fffffffffffffffffffffffffffffffffffffffffffffffffffffffffffffffff81146112a55781811015611295578281836040517ffb8f41b200000000000000000000000000000000000000000000000000000000815260040161128c93929190612872565b60405180910390fd5b6112a48484848403600061187a565b5b50505050565b600073ffffffffffffffffffffffffffffffffffffffff168373ffffffffffffffffffffffffffffffffffffffff160361131d5760006040517f96c6fd1e0000000000000000000000000000000000000000000000000000000081526004016113149190611f83565b60405180910390fd5b600073ffffffffffffffffffffffffffffffffffffffff168273ffffffffffffffffffffffffffffffffffffffff160361138f5760006040517fec442f050000000000000000000000000000000000000000000000000000000081526004016113869190611f83565b60405180910390fd5b61139a838383611652565b505050565b6113b0816113ab6111fd565b611a51565b50565b60006113bf8383610e64565b61149957600160008085815260200190815260200160002060000160008473ffffffffffffffffffffffffffffffffffffffff1673ffffffffffffffffffffffffffffffffffffffff16815260200190815260200160002060006101000a81548160ff0219169083151502179055506114366111fd565b73ffffffffffffffffffffffffffffffffffffffff168273ffffffffffffffffffffffffffffffffffffffff16847f2f8788117e7eff1d82e926ec794901d17c78024a50270940304540a733656f0d60405160405180910390a46001905061149e565b600090505b92915050565b60006114b08383610e64565b1561158b57600080600085815260200190815260200160002060000160008473ffffffffffffffffffffffffffffffffffffffff1673ffffffffffffffffffffffffffffffffffffffff16815260200190815260200160002060006101000a81548160ff0219169083151502179055506115286111fd565b73ffffffffffffffffffffffffffffffffffffffff168273ffffffffffffffffffffffffffffffffffffffff16847ff6391f5c32d9c69d2a47ea670b442974b53935d1edc7fd64eb21e047a839171b60405160405180910390a460019050611590565b600090505b92915050565b60008086868101906115a891906128e7565b915091506115b68282611aa2565b80600860008282546115c89190612927565b925050819055508173ffffffffffffffffffffffffffffffffffffffff1684867fe54144d90f48a9826fdec75d150b5bfc91c0752524eb604a5ffba496b6dd0aab848760405161161992919061247c565b60405180910390a450505050505050565b60007ff0c57e16840df040f15088dc2f81fe391c3923bec73e23a9662efc9c229c6a00905090565b600073ffffffffffffffffffffffffffffffffffffffff168373ffffffffffffffffffffffffffffffffffffffff16036116a45780600560008282546116989190612927565b92505081905550611779565b6000600360008573ffffffffffffffffffffffffffffffffffffffff1673ffffffffffffffffffffffffffffffffffffffff16815260200190815260200160002054905081811015611731578381836040517fe450d38c00000000000000000000000000000000000000000000000000000000815260040161172893929190612872565b60405180910390fd5b818103600360008673ffffffffffffffffffffffffffffffffffffffff1673ffffffffffffffffffffffffffffffffffffffff16815260200190815260200160002081905550505b600073ffffffffffffffffffffffffffffffffffffffff168273ffffffffffffffffffffffffffffffffffffffff16036117c25780600560008282540392505081905550611810565b80600360008473ffffffffffffffffffffffffffffffffffffffff1673ffffffffffffffffffffffffffffffffffffffff168152602001908152602001600020600082825401925050819055505b8173ffffffffffffffffffffffffffffffffffffffff168373ffffffffffffffffffffffffffffffffffffffff167fddf252ad1be2c89b69c2b068fc378daa952ba7f163c4a11628f55a4df523b3ef8360405161186d9190611bb3565b60405180910390a3505050565b600073ffffffffffffffffffffffffffffffffffffffff168473ffffffffffffffffffffffffffffffffffffffff16036118ec5760006040517fe602df050000000000000000000000000000000000000000000000000000000081526004016118e39190611f83565b60405180910390fd5b600073ffffffffffffffffffffffffffffffffffffffff168373ffffffffffffffffffffffffffffffffffffffff160361195e5760006040517f94280d620000000000000000000000000000000000000000000000000000000081526004016119559190611f83565b60405180910390fd5b81600460008673ffffffffffffffffffffffffffffffffffffffff1673ffffffffffffffffffffffffffffffffffffffff16815260200190815260200160002060008573ffffffffffffffffffffffffffffffffffffffff1673ffffffffffffffffffffffffffffffffffffffff168152602001908152602001600020819055508015611a4b578273ffffffffffffffffffffffffffffffffffffffff168473ffffffffffffffffffffffffffffffffffffffff167f8c5be1e5ebec7d5bd14f71427d1e84f3dd0314c0f7b2291e5b200ac8c7c3b92584604051611a429190611bb3565b60405180910390a35b50505050565b611a5b8282610e64565b611a9e5780826040517fe2517d3f000000000000000000000000000000000000000000000000000000008152600401611a9592919061295b565b60405180910390fd5b5050565b600073ffffffffffffffffffffffffffffffffffffffff168273ffffffffffffffffffffffffffffffffffffffff1603611b145760006040517fec442f05000000000000000000000000000000000000000000000000000000008152600401611b0b9190611f83565b60405180910390fd5b611b2060008383611652565b5050565b600080fd5b600080fd5b6000819050919050565b611b4181611b2e565b8114611b4c57600080fd5b50565b600081359050611b5e81611b38565b92915050565b60008060408385031215611b7b57611b7a611b24565b5b6000611b8985828601611b4f565b9250506020611b9a85828601611b4f565b9150509250929050565b611bad81611b2e565b82525050565b6000602082019050611bc86000830184611ba4565b92915050565b60007fffffffff0000000000000000000000000000000000000000000000000000000082169050919050565b611c0381611bce565b8114611c0e57600080fd5b50565b600081359050611c2081611bfa565b92915050565b600060208284031215611c3c57611c3b611b24565b5b6000611c4a84828501611c11565b91505092915050565b60008115159050919050565b611c6881611c53565b82525050565b6000602082019050611c836000830184611c5f565b92915050565b600081519050919050565b600082825260208201905092915050565b60005b83811015611cc3578082015181840152602081019050611ca8565b60008484015250505050565b6000601f19601f8301169050919050565b6000611ceb82611c89565b611cf58185611c94565b9350611d05818560208601611ca5565b611d0e81611ccf565b840191505092915050565b60006020820190508181036000830152611d338184611ce0565b905092915050565b600073ffffffffffffffffffffffffffffffffffffffff82169050919050565b6000611d6682611d3b565b9050919050565b611d7681611d5b565b8114611d8157600080fd5b50565b600081359050611d9381611d6d565b92915050565b600080600080600060a08688031215611db557611db4611b24565b5b6000611dc388828901611b4f565b9550506020611dd488828901611d84565b9450506040611de588828901611d84565b9350506060611df688828901611b4f565b9250506080611e0788828901611b4f565b9150509295509295909350565b60008060408385031215611e2b57611e2a611b24565b5b6000611e3985828601611d84565b9250506020611e4a85828601611b4f565b9150509250929050565b600080600060608486031215611e6d57611e6c611b24565b5b6000611e7b86828701611d84565b9350506020611e8c86828701611d84565b9250506040611e9d86828701611b4f565b9150509250925092565b6000819050919050565b611eba81611ea7565b8114611ec557600080fd5b50565b600081359050611ed781611eb1565b92915050565b600060208284031215611ef357611ef2611b24565b5b6000611f0184828501611ec8565b91505092915050565b611f1381611ea7565b82525050565b6000602082019050611f2e6000830184611f0a565b92915050565b60008060408385031215611f4b57611f4a611b24565b5b6000611f5985828601611ec8565b9250506020611f6a85828601611d84565b9150509250929050565b611f7d81611d5b565b82525050565b6000602082019050611f986000830184611f74565b92915050565b600060ff82169050919050565b611fb481611f9e565b82525050565b6000602082019050611fcf6000830184611fab565b92915050565b600080fd5b600080fd5b600080fd5b60008083601f840112611ffa57611ff9611fd5565b5b8235905067ffffffffffffffff81111561201757612016611fda565b5b60208301915083600182028301111561203357612032611fdf565b5b9250929050565b60008060008060006080868803121561205657612055611b24565b5b600086013567ffffffffffffffff81111561207457612073611b29565b5b61208088828901611fe4565b9550955050602061209388828901611ec8565b93505060406120a488828901611b4f565b92505060606120b588828901611d84565b9150509295509295909350565b600080604083850312156120d9576120d8611b24565b5b60006120e785828601611d84565b92505060206120f885828601611d84565b9150509250929050565b60006020828403121561211857612117611b24565b5b600061212684828501611d84565b91505092915050565b60008083601f84011261214557612144611fd5565b5b8235905067ffffffffffffffff81111561216257612161611fda565b5b60208301915083602082028301111561217e5761217d611fdf565b5b9250929050565b60008083601f84011261219b5761219a611fd5565b5b8235905067ffffffffffffffff8111156121b8576121b7611fda565b5b6020830191508360208202830111156121d4576121d3611fdf565b5b9250929050565b60008083601f8401126121f1576121f0611fd5565b5b8235905067ffffffffffffffff81111561220e5761220d611fda565b5b60208301915083602082028301111561222a57612229611fdf565b5b9250929050565b6000806000806000806060878903121561224e5761224d611b24565b5b600087013567ffffffffffffffff81111561226c5761226b611b29565b5b61227889828a0161212f565b9650965050602087013567ffffffffffffffff81111561229b5761229a611b29565b5b6122a789828a01612185565b9450945050604087013567ffffffffffffffff8111156122ca576122c9611b29565b5b6122d689828a016121db565b92509250509295509295509295565b600080604083850312156122fc576122fb611b24565b5b600061230a85828601611b4f565b925050602061231b85828601611d84565b9150509250929050565b600060408201905061233a6000830185611ba4565b6123476020830184611ba4565b9392505050565b60008151905061235d81611b38565b92915050565b60006020828403121561237957612378611b24565b5b60006123878482850161234e565b91505092915050565b7f4e487b7100000000000000000000000000000000000000000000000000000000600052602260045260246000fd5b600060028204905060018216806123d757607f821691505b6020821081036123ea576123e9612390565b5b50919050565b7f4e487b7100000000000000000000000000000000000000000000000000000000600052601160045260246000fd5b600061242a82611b2e565b915061243583611b2e565b925082820390508181111561244d5761244c6123f0565b5b92915050565b60006040820190506124686000830185611f74565b6124756020830184611ba4565b9392505050565b60006040820190506124916000830185611ba4565b61249e6020830184611f74565b9392505050565b7f576d624170703a204f6e6c7920574d4220676174657761792063616e2063616c60008201527f6c20746869732066756e6374696f6e0000000000000000000000000000000000602082015250565b6000612501602f83611c94565b915061250c826124a5565b604082019050919050565b60006020820190508181036000830152612530816124f4565b9050919050565b7f576d624170703a2052656d6f7465206973206e6f742074727573746564000000600082015250565b600061256d601d83611c94565b915061257882612537565b602082019050919050565b6000602082019050818103600083015261259c81612560565b9050919050565b6000819050919050565b600067ffffffffffffffff82169050919050565b6000819050919050565b60006125e66125e16125dc846125a3565b6125c1565b6125ad565b9050919050565b6125f6816125cb565b82525050565b600060208201905061261160008301846125ed565b92915050565b7f576d624170703a206d75737420686176652061646d696e20726f6c6520746f2060008201527f73657420747275737465642072656d6f74657300000000000000000000000000602082015250565b6000612673603383611c94565b915061267e82612617565b604082019050919050565b600060208201905081810360008301526126a281612666565b9050919050565b7f576d624170703a20696e76616c696420696e7075740000000000000000000000600082015250565b60006126df601583611c94565b91506126ea826126a9565b602082019050919050565b6000602082019050818103600083015261270e816126d2565b9050919050565b7f4e487b7100000000000000000000000000000000000000000000000000000000600052603260045260246000fd5b61274d81611c53565b811461275857600080fd5b50565b60008135905061276a81612744565b92915050565b60006020828403121561278657612785611b24565b5b60006127948482850161275b565b91505092915050565b600081519050919050565b600082825260208201905092915050565b60006127c48261279d565b6127ce81856127a8565b93506127de818560208601611ca5565b6127e781611ccf565b840191505092915050565b60006060820190506128076000830186611ba4565b6128146020830185611f74565b818103604083015261282681846127b9565b9050949350505050565b60008151905061283f81611eb1565b92915050565b60006020828403121561285b5761285a611b24565b5b600061286984828501612830565b91505092915050565b60006060820190506128876000830186611f74565b6128946020830185611ba4565b6128a16040830184611ba4565b949350505050565b60006128b482611d3b565b9050919050565b6128c4816128a9565b81146128cf57600080fd5b50565b6000813590506128e1816128bb565b92915050565b600080604083850312156128fe576128fd611b24565b5b600061290c858286016128d2565b925050602061291d85828601611b4f565b9150509250929050565b600061293282611b2e565b915061293d83611b2e565b9250828201905080821115612955576129546123f0565b5b92915050565b60006040820190506129706000830185611f74565b61297d6020830184611f0a565b939250505056fea264697066735822122040c2279faa40cf00127fe655f4eb04eed8eeca4ca61ac21ce244a1644dd8b91364736f6c63430008160033",
  "linkReferences": {},
  "deployedLinkReferences": {}
}