{
  "_format": "hh-sol-artifact-1",
  "contractName": "lockContract",
  "sourceName": "contracts/app/lockContract.sol",
  "abi": [
    {
      "inputs": [
        {
          "internalType": "address",
          "name": "_admin",
          "type": "address"
        },
        {
          "internalType": "address",
          "name": "_wmbGateway",
          "type": "address"
        }
      ],
      "stateMutability": "nonpayable",
      "type": "constructor"
    },
    {
      "inputs": [],
      "name": "AccessControlBadConfirmation",
      "type": "error"
    },
    {
      "inputs": [
        {
          "internalType": "address",
          "name": "account",
          "type": "address"
        },
        {
          "internalType": "bytes32",
          "name": "neededRole",
          "type": "bytes32"
        }
      ],
      "name": "AccessControlUnauthorizedAccount",
      "type": "error"
    },
    {
      "inputs": [],
      "name": "InvalidInitialization",
      "type": "error"
    },
    {
      "inputs": [],
      "name": "NotInitializing",
      "type": "error"
    },
    {
      "anonymous": false,
      "inputs": [
        {
          "indexed": false,
          "internalType": "uint64",
          "name": "version",
          "type": "uint64"
        }
      ],
      "name": "Initialized",
      "type": "event"
    },
    {
      "anonymous": false,
      "inputs": [
        {
          "indexed": true,
          "internalType": "uint256",
          "name": "toChainId",
          "type": "uint256"
        },
        {
          "indexed": true,
          "internalType": "address",
          "name": "to",
          "type": "address"
        },
        {
          "indexed": false,
          "internalType": "uint256",
          "name": "amount",
          "type": "uint256"
        },
        {
          "indexed": false,
          "internalType": "address",
          "name": "toSC",
          "type": "address"
        }
      ],
      "name": "Locked",
      "type": "event"
    },
    {
      "anonymous": false,
      "inputs": [
        {
          "indexed": true,
          "internalType": "bytes32",
          "name": "role",
          "type": "bytes32"
        },
        {
          "indexed": true,
          "internalType": "bytes32",
          "name": "previousAdminRole",
          "type": "bytes32"
        },
        {
          "indexed": true,
          "internalType": "bytes32",
          "name": "newAdminRole",
          "type": "bytes32"
        }
      ],
      "name": "RoleAdminChanged",
      "type": "event"
    },
    {
      "anonymous": false,
      "inputs": [
        {
          "indexed": true,
          "internalType": "bytes32",
          "name": "role",
          "type": "bytes32"
        },
        {
          "indexed": true,
          "internalType": "address",
          "name": "account",
          "type": "address"
        },
        {
          "indexed": true,
          "internalType": "address",
          "name": "sender",
          "type": "address"
        }
      ],
      "name": "RoleGranted",
      "type": "event"
    },
    {
      "anonymous": false,
      "inputs": [
        {
          "indexed": true,
          "internalType": "bytes32",
          "name": "role",
          "type": "bytes32"
        },
        {
          "indexed": true,
          "internalType": "address",
          "name": "account",
          "type": "address"
        },
        {
          "indexed": true,
          "internalType": "address",
          "name": "sender",
          "type": "address"
        }
      ],
      "name": "RoleRevoked",
      "type": "event"
    },
    {
      "anonymous": false,
      "inputs": [
        {
          "indexed": true,
          "internalType": "bytes32",
          "name": "messageId",
          "type": "bytes32"
        },
        {
          "indexed": true,
          "internalType": "uint256",
          "name": "fromChainId",
          "type": "uint256"
        },
        {
          "indexed": true,
          "internalType": "address",
          "name": "to",
          "type": "address"
        },
        {
          "indexed": false,
          "internalType": "uint256",
          "name": "amount",
          "type": "uint256"
        },
        {
          "indexed": false,
          "internalType": "address",
          "name": "fromSC",
          "type": "address"
        }
      ],
      "name": "coinsReleased",
      "type": "event"
    },
    {
      "inputs": [],
      "name": "DEFAULT_ADMIN_ROLE",
      "outputs": [
        {
          "internalType": "bytes32",
          "name": "",
          "type": "bytes32"
        }
      ],
      "stateMutability": "view",
      "type": "function"
    },
    {
      "inputs": [
        {
          "internalType": "address",
          "name": "user",
          "type": "address"
        }
      ],
      "name": "balanceOf",
      "outputs": [
        {
          "internalType": "uint256",
          "name": "",
          "type": "uint256"
        }
      ],
      "stateMutability": "view",
      "type": "function"
    },
    {
      "inputs": [
        {
          "internalType": "uint256",
          "name": "toChain",
          "type": "uint256"
        },
        {
          "internalType": "uint256",
          "name": "gasLimit",
          "type": "uint256"
        }
      ],
      "name": "estimateFee",
      "outputs": [
        {
          "internalType": "uint256",
          "name": "",
          "type": "uint256"
        }
      ],
      "stateMutability": "view",
      "type": "function"
    },
    {
      "inputs": [
        {
          "internalType": "bytes32",
          "name": "role",
          "type": "bytes32"
        }
      ],
      "name": "getRoleAdmin",
      "outputs": [
        {
          "internalType": "bytes32",
          "name": "",
          "type": "bytes32"
        }
      ],
      "stateMutability": "view",
      "type": "function"
    },
    {
      "inputs": [
        {
          "internalType": "bytes32",
          "name": "role",
          "type": "bytes32"
        },
        {
          "internalType": "address",
          "name": "account",
          "type": "address"
        }
      ],
      "name": "grantRole",
      "outputs": [],
      "stateMutability": "nonpayable",
      "type": "function"
    },
    {
      "inputs": [
        {
          "internalType": "bytes32",
          "name": "role",
          "type": "bytes32"
        },
        {
          "internalType": "address",
          "name": "account",
          "type": "address"
        }
      ],
      "name": "hasRole",
      "outputs": [
        {
          "internalType": "bool",
          "name": "",
          "type": "bool"
        }
      ],
      "stateMutability": "view",
      "type": "function"
    },
    {
      "inputs": [
        {
          "internalType": "address",
          "name": "admin",
          "type": "address"
        },
        {
          "internalType": "address",
          "name": "_wmbGateway",
          "type": "address"
        }
      ],
      "name": "initialize",
      "outputs": [],
      "stateMutability": "nonpayable",
      "type": "function"
    },
    {
      "inputs": [
        {
          "internalType": "uint256",
          "name": "toChainId",
          "type": "uint256"
        },
        {
          "internalType": "address",
          "name": "toSC",
          "type": "address"
        },
        {
          "internalType": "address",
          "name": "toUser",
          "type": "address"
        },
        {
          "internalType": "uint256",
          "name": "gasLimit",
          "type": "uint256"
        }
      ],
      "name": "lockCoin",
      "outputs": [],
      "stateMutability": "payable",
      "type": "function"
    },
    {
      "inputs": [
        {
          "internalType": "bytes32",
          "name": "role",
          "type": "bytes32"
        },
        {
          "internalType": "address",
          "name": "callerConfirmation",
          "type": "address"
        }
      ],
      "name": "renounceRole",
      "outputs": [],
      "stateMutability": "nonpayable",
      "type": "function"
    },
    {
      "inputs": [
        {
          "internalType": "bytes32",
          "name": "role",
          "type": "bytes32"
        },
        {
          "internalType": "address",
          "name": "account",
          "type": "address"
        }
      ],
      "name": "revokeRole",
      "outputs": [],
      "stateMutability": "nonpayable",
      "type": "function"
    },
    {
      "inputs": [
        {
          "internalType": "uint256[]",
          "name": "fromChainIds",
          "type": "uint256[]"
        },
        {
          "internalType": "address[]",
          "name": "froms",
          "type": "address[]"
        },
        {
          "internalType": "bool[]",
          "name": "trusted",
          "type": "bool[]"
        }
      ],
      "name": "setTrustedRemotes",
      "outputs": [],
      "stateMutability": "nonpayable",
      "type": "function"
    },
    {
      "inputs": [
        {
          "internalType": "bytes4",
          "name": "interfaceId",
          "type": "bytes4"
        }
      ],
      "name": "supportsInterface",
      "outputs": [
        {
          "internalType": "bool",
          "name": "",
          "type": "bool"
        }
      ],
      "stateMutability": "view",
      "type": "function"
    },
    {
      "inputs": [],
      "name": "totalSupply",
      "outputs": [
        {
          "internalType": "uint256",
          "name": "",
          "type": "uint256"
        }
      ],
      "stateMutability": "view",
      "type": "function"
    },
    {
      "inputs": [
        {
          "internalType": "uint256",
          "name": "",
          "type": "uint256"
        },
        {
          "internalType": "address",
          "name": "",
          "type": "address"
        }
      ],
      "name": "trustedRemotes",
      "outputs": [
        {
          "internalType": "bool",
          "name": "",
          "type": "bool"
        }
      ],
      "stateMutability": "view",
      "type": "function"
    },
    {
      "inputs": [],
      "name": "wmbGateway",
      "outputs": [
        {
          "internalType": "address",
          "name": "",
          "type": "address"
        }
      ],
      "stateMutability": "view",
      "type": "function"
    },
    {
      "inputs": [
        {
          "internalType": "bytes",
          "name": "data",
          "type": "bytes"
        },
        {
          "internalType": "bytes32",
          "name": "messageId",
          "type": "bytes32"
        },
        {
          "internalType": "uint256",
          "name": "fromChainId",
          "type": "uint256"
        },
        {
          "internalType": "address",
          "name": "from",
          "type": "address"
        }
      ],
      "name": "wmbReceive",
      "outputs": [],
      "stateMutability": "nonpayable",
      "type": "function"
    }
  ],
  "bytecode": "0x60806040523480156200001157600080fd5b506040516200260338038062002603833981810160405281019062000037919062000446565b6200004982826200005160201b60201c565b50506200050b565b6000620000636200023f60201b60201c565b905060008160000160089054906101000a900460ff1615905060008260000160009054906101000a900467ffffffffffffffff1690506000808267ffffffffffffffff16148015620000b25750825b9050600060018367ffffffffffffffff16148015620000e8575060003073ffffffffffffffffffffffffffffffffffffffff163b145b905081158015620000f7575080155b156200012f576040517ff92ee8a900000000000000000000000000000000000000000000000000000000815260040160405180910390fd5b60018560000160006101000a81548167ffffffffffffffff021916908367ffffffffffffffff1602179055508315620001805760018560000160086101000a81548160ff0219169083151502179055505b620001956000801b886200026760201b60201c565b5085600160006101000a81548173ffffffffffffffffffffffffffffffffffffffff021916908373ffffffffffffffffffffffffffffffffffffffff1602179055508315620002365760008560000160086101000a81548160ff0219169083151502179055507fc7f505b2f371ae2175ee4913f4499e1f2633a7b5936321eed1cdaeb6115181d260016040516200022d9190620004ee565b60405180910390a15b50505050505050565b60007ff0c57e16840df040f15088dc2f81fe391c3923bec73e23a9662efc9c229c6a00905090565b60006200027b83836200036a60201b60201c565b6200035f57600160008085815260200190815260200160002060000160008473ffffffffffffffffffffffffffffffffffffffff1673ffffffffffffffffffffffffffffffffffffffff16815260200190815260200160002060006101000a81548160ff021916908315150217905550620002fb620003d460201b60201c565b73ffffffffffffffffffffffffffffffffffffffff168273ffffffffffffffffffffffffffffffffffffffff16847f2f8788117e7eff1d82e926ec794901d17c78024a50270940304540a733656f0d60405160405180910390a46001905062000364565b600090505b92915050565b600080600084815260200190815260200160002060000160008373ffffffffffffffffffffffffffffffffffffffff1673ffffffffffffffffffffffffffffffffffffffff16815260200190815260200160002060009054906101000a900460ff16905092915050565b600033905090565b600080fd5b600073ffffffffffffffffffffffffffffffffffffffff82169050919050565b60006200040e82620003e1565b9050919050565b620004208162000401565b81146200042c57600080fd5b50565b600081519050620004408162000415565b92915050565b6000806040838503121562000460576200045f620003dc565b5b600062000470858286016200042f565b925050602062000483858286016200042f565b9150509250929050565b6000819050919050565b600067ffffffffffffffff82169050919050565b6000819050919050565b6000620004d6620004d0620004ca846200048d565b620004ab565b62000497565b9050919050565b620004e881620004b5565b82525050565b6000602082019050620005056000830184620004dd565b92915050565b6120e8806200051b6000396000f3fe6080604052600436106100f25760003560e01c8063485cc9551161008a57806391d148541161005957806391d148541461032a578063a217fddf14610367578063d547741f14610392578063e3d4683b146103bb576100f2565b8063485cc9551461027f57806370a08231146102a85780637f34071d146102e55780638b00f3d51461030e576100f2565b80632f2ff15d116100c65780632f2ff15d146101d95780633088a5f91461020257806336568abe1461022d5780633a1a5b7614610256576100f2565b8062e1d8d0146100f757806301ffc9a71461013457806318160ddd14610171578063248a9ca31461019c575b600080fd5b34801561010357600080fd5b5061011e600480360381019061011991906112dd565b6103f8565b60405161012b919061132c565b60405180910390f35b34801561014057600080fd5b5061015b6004803603810190610156919061139f565b61049f565b60405161016891906113e7565b60405180910390f35b34801561017d57600080fd5b50610186610519565b604051610193919061132c565b60405180910390f35b3480156101a857600080fd5b506101c360048036038101906101be9190611438565b61051f565b6040516101d09190611474565b60405180910390f35b3480156101e557600080fd5b5061020060048036038101906101fb91906114ed565b61053e565b005b34801561020e57600080fd5b50610217610560565b604051610224919061153c565b60405180910390f35b34801561023957600080fd5b50610254600480360381019061024f91906114ed565b610586565b005b34801561026257600080fd5b5061027d600480360381019061027891906115bc565b610601565b005b34801561028b57600080fd5b506102a660048036038101906102a19190611644565b610742565b005b3480156102b457600080fd5b506102cf60048036038101906102ca9190611684565b610918565b6040516102dc919061132c565b60405180910390f35b3480156102f157600080fd5b5061030c600480360381019061030791906117b3565b610961565b005b61032860048036038101906103239190611867565b610af9565b005b34801561033657600080fd5b50610351600480360381019061034c91906114ed565b610c93565b60405161035e91906113e7565b60405180910390f35b34801561037357600080fd5b5061037c610cfd565b6040516103899190611474565b60405180910390f35b34801561039e57600080fd5b506103b960048036038101906103b491906114ed565b610d04565b005b3480156103c757600080fd5b506103e260048036038101906103dd91906118ce565b610d26565b6040516103ef91906113e7565b60405180910390f35b6000600160009054906101000a900473ffffffffffffffffffffffffffffffffffffffff1673ffffffffffffffffffffffffffffffffffffffff1662e1d8d084846040518363ffffffff1660e01b815260040161045692919061190e565b602060405180830381865afa158015610473573d6000803e3d6000fd5b505050506040513d601f19601f82011682018060405250810190610497919061194c565b905092915050565b60007f7965db0b000000000000000000000000000000000000000000000000000000007bffffffffffffffffffffffffffffffffffffffffffffffffffffffff1916827bffffffffffffffffffffffffffffffffffffffffffffffffffffffff19161480610512575061051182610d55565b5b9050919050565b60035481565b6000806000838152602001908152602001600020600101549050919050565b6105478261051f565b61055081610dbf565b61055a8383610dd3565b50505050565b600160009054906101000a900473ffffffffffffffffffffffffffffffffffffffff1681565b61058e610ec4565b73ffffffffffffffffffffffffffffffffffffffff168173ffffffffffffffffffffffffffffffffffffffff16146105f2576040517f6697b23200000000000000000000000000000000000000000000000000000000815260040160405180910390fd5b6105fc8282610ecc565b505050565b600160009054906101000a900473ffffffffffffffffffffffffffffffffffffffff1673ffffffffffffffffffffffffffffffffffffffff163373ffffffffffffffffffffffffffffffffffffffff1614610691576040517f08c379a0000000000000000000000000000000000000000000000000000000008152600401610688906119fc565b60405180910390fd5b6002600083815260200190815260200160002060008273ffffffffffffffffffffffffffffffffffffffff1673ffffffffffffffffffffffffffffffffffffffff16815260200190815260200160002060009054906101000a900460ff1661072e576040517f08c379a000000000000000000000000000000000000000000000000000000000815260040161072590611a68565b60405180910390fd5b61073b8585858585610fbe565b5050505050565b600061074c611039565b905060008160000160089054906101000a900460ff1615905060008260000160009054906101000a900467ffffffffffffffff1690506000808267ffffffffffffffff1614801561079a5750825b9050600060018367ffffffffffffffff161480156107cf575060003073ffffffffffffffffffffffffffffffffffffffff163b145b9050811580156107dd575080155b15610814576040517ff92ee8a900000000000000000000000000000000000000000000000000000000815260040160405180910390fd5b60018560000160006101000a81548167ffffffffffffffff021916908367ffffffffffffffff16021790555083156108645760018560000160086101000a81548160ff0219169083151502179055505b6108716000801b88610dd3565b5085600160006101000a81548173ffffffffffffffffffffffffffffffffffffffff021916908373ffffffffffffffffffffffffffffffffffffffff160217905550831561090f5760008560000160086101000a81548160ff0219169083151502179055507fc7f505b2f371ae2175ee4913f4499e1f2633a7b5936321eed1cdaeb6115181d260016040516109069190611ae1565b60405180910390a15b50505050505050565b6000600460008373ffffffffffffffffffffffffffffffffffffffff1673ffffffffffffffffffffffffffffffffffffffff168152602001908152602001600020549050919050565b61096e6000801b33610c93565b6109ad576040517f08c379a00000000000000000000000000000000000000000000000000000000081526004016109a490611b6e565b60405180910390fd5b83839050868690501480156109c757508181905084849050145b610a06576040517f08c379a00000000000000000000000000000000000000000000000000000000081526004016109fd90611bda565b60405180910390fd5b60005b86869050811015610af057828282818110610a2757610a26611bfa565b5b9050602002016020810190610a3c9190611c55565b60026000898985818110610a5357610a52611bfa565b5b9050602002013581526020019081526020016000206000878785818110610a7d57610a7c611bfa565b5b9050602002016020810190610a929190611684565b73ffffffffffffffffffffffffffffffffffffffff1673ffffffffffffffffffffffffffffffffffffffff16815260200190815260200160002060006101000a81548160ff0219169083151502179055508080600101915050610a09565b50505050505050565b60003411610b3c576040517f08c379a0000000000000000000000000000000000000000000000000000000008152600401610b3390611cf4565b60405180910390fd5b6000610b4885836103f8565b905060008134610b589190611d43565b905060008111610b9d576040517f08c379a0000000000000000000000000000000000000000000000000000000008152600401610b9490611dc3565b60405180910390fd5b80600460003373ffffffffffffffffffffffffffffffffffffffff1673ffffffffffffffffffffffffffffffffffffffff1681526020019081526020016000206000828254610bec9190611de3565b925050819055508060036000828254610c059190611de3565b92505081905550610c3986868684604051602001610c24929190611e17565b60405160208183030381529060405285611061565b508373ffffffffffffffffffffffffffffffffffffffff16867fcc498b703ba0ba7cfe59182e2a28c3543d6ab7d914208d4b5d9cddc90e7a8b158388604051610c83929190611e40565b60405180910390a3505050505050565b600080600084815260200190815260200160002060000160008373ffffffffffffffffffffffffffffffffffffffff1673ffffffffffffffffffffffffffffffffffffffff16815260200190815260200160002060009054906101000a900460ff16905092915050565b6000801b81565b610d0d8261051f565b610d1681610dbf565b610d208383610ecc565b50505050565b60026020528160005260406000206020528060005260406000206000915091509054906101000a900460ff1681565b60007f01ffc9a7000000000000000000000000000000000000000000000000000000007bffffffffffffffffffffffffffffffffffffffffffffffffffffffff1916827bffffffffffffffffffffffffffffffffffffffffffffffffffffffff1916149050919050565b610dd081610dcb610ec4565b611110565b50565b6000610ddf8383610c93565b610eb957600160008085815260200190815260200160002060000160008473ffffffffffffffffffffffffffffffffffffffff1673ffffffffffffffffffffffffffffffffffffffff16815260200190815260200160002060006101000a81548160ff021916908315150217905550610e56610ec4565b73ffffffffffffffffffffffffffffffffffffffff168273ffffffffffffffffffffffffffffffffffffffff16847f2f8788117e7eff1d82e926ec794901d17c78024a50270940304540a733656f0d60405160405180910390a460019050610ebe565b600090505b92915050565b600033905090565b6000610ed88383610c93565b15610fb357600080600085815260200190815260200160002060000160008473ffffffffffffffffffffffffffffffffffffffff1673ffffffffffffffffffffffffffffffffffffffff16815260200190815260200160002060006101000a81548160ff021916908315150217905550610f50610ec4565b73ffffffffffffffffffffffffffffffffffffffff168273ffffffffffffffffffffffffffffffffffffffff16847ff6391f5c32d9c69d2a47ea670b442974b53935d1edc7fd64eb21e047a839171b60405160405180910390a460019050610fb8565b600090505b92915050565b6000808686810190610fd09190611ea7565b91509150610fde8282611161565b8173ffffffffffffffffffffffffffffffffffffffff1684867f3433188ad34e591222538ae87900d156911b165a3273995620d5218b993243cc8487604051611028929190611e40565b60405180910390a450505050505050565b60007ff0c57e16840df040f15088dc2f81fe391c3923bec73e23a9662efc9c229c6a00905090565b6000600160009054906101000a900473ffffffffffffffffffffffffffffffffffffffff1673ffffffffffffffffffffffffffffffffffffffff1663fe39827b838787876040518563ffffffff1660e01b81526004016110c393929190611f77565b60206040518083038185885af11580156110e1573d6000803e3d6000fd5b50505050506040513d601f19601f820116820180604052508101906111069190611fca565b9050949350505050565b61111a8282610c93565b61115d5780826040517fe2517d3f000000000000000000000000000000000000000000000000000000008152600401611154929190611ff7565b60405180910390fd5b5050565b80600460008473ffffffffffffffffffffffffffffffffffffffff1673ffffffffffffffffffffffffffffffffffffffff1681526020019081526020016000205410156111e3576040517f08c379a00000000000000000000000000000000000000000000000000000000081526004016111da90612092565b60405180910390fd5b80600460008473ffffffffffffffffffffffffffffffffffffffff1673ffffffffffffffffffffffffffffffffffffffff16815260200190815260200160002060008282546112329190611d43565b92505081905550806003600082825461124b9190611d43565b925050819055508173ffffffffffffffffffffffffffffffffffffffff166108fc829081150290604051600060405180830381858888f19350505050158015611298573d6000803e3d6000fd5b505050565b600080fd5b600080fd5b6000819050919050565b6112ba816112a7565b81146112c557600080fd5b50565b6000813590506112d7816112b1565b92915050565b600080604083850312156112f4576112f361129d565b5b6000611302858286016112c8565b9250506020611313858286016112c8565b9150509250929050565b611326816112a7565b82525050565b6000602082019050611341600083018461131d565b92915050565b60007fffffffff0000000000000000000000000000000000000000000000000000000082169050919050565b61137c81611347565b811461138757600080fd5b50565b60008135905061139981611373565b92915050565b6000602082840312156113b5576113b461129d565b5b60006113c38482850161138a565b91505092915050565b60008115159050919050565b6113e1816113cc565b82525050565b60006020820190506113fc60008301846113d8565b92915050565b6000819050919050565b61141581611402565b811461142057600080fd5b50565b6000813590506114328161140c565b92915050565b60006020828403121561144e5761144d61129d565b5b600061145c84828501611423565b91505092915050565b61146e81611402565b82525050565b60006020820190506114896000830184611465565b92915050565b600073ffffffffffffffffffffffffffffffffffffffff82169050919050565b60006114ba8261148f565b9050919050565b6114ca816114af565b81146114d557600080fd5b50565b6000813590506114e7816114c1565b92915050565b600080604083850312156115045761150361129d565b5b600061151285828601611423565b9250506020611523858286016114d8565b9150509250929050565b611536816114af565b82525050565b6000602082019050611551600083018461152d565b92915050565b600080fd5b600080fd5b600080fd5b60008083601f84011261157c5761157b611557565b5b8235905067ffffffffffffffff8111156115995761159861155c565b5b6020830191508360018202830111156115b5576115b4611561565b5b9250929050565b6000806000806000608086880312156115d8576115d761129d565b5b600086013567ffffffffffffffff8111156115f6576115f56112a2565b5b61160288828901611566565b9550955050602061161588828901611423565b9350506040611626888289016112c8565b9250506060611637888289016114d8565b9150509295509295909350565b6000806040838503121561165b5761165a61129d565b5b6000611669858286016114d8565b925050602061167a858286016114d8565b9150509250929050565b60006020828403121561169a5761169961129d565b5b60006116a8848285016114d8565b91505092915050565b60008083601f8401126116c7576116c6611557565b5b8235905067ffffffffffffffff8111156116e4576116e361155c565b5b602083019150836020820283011115611700576116ff611561565b5b9250929050565b60008083601f84011261171d5761171c611557565b5b8235905067ffffffffffffffff81111561173a5761173961155c565b5b60208301915083602082028301111561175657611755611561565b5b9250929050565b60008083601f84011261177357611772611557565b5b8235905067ffffffffffffffff8111156117905761178f61155c565b5b6020830191508360208202830111156117ac576117ab611561565b5b9250929050565b600080600080600080606087890312156117d0576117cf61129d565b5b600087013567ffffffffffffffff8111156117ee576117ed6112a2565b5b6117fa89828a016116b1565b9650965050602087013567ffffffffffffffff81111561181d5761181c6112a2565b5b61182989828a01611707565b9450945050604087013567ffffffffffffffff81111561184c5761184b6112a2565b5b61185889828a0161175d565b92509250509295509295509295565b600080600080608085870312156118815761188061129d565b5b600061188f878288016112c8565b94505060206118a0878288016114d8565b93505060406118b1878288016114d8565b92505060606118c2878288016112c8565b91505092959194509250565b600080604083850312156118e5576118e461129d565b5b60006118f3858286016112c8565b9250506020611904858286016114d8565b9150509250929050565b6000604082019050611923600083018561131d565b611930602083018461131d565b9392505050565b600081519050611946816112b1565b92915050565b6000602082840312156119625761196161129d565b5b600061197084828501611937565b91505092915050565b600082825260208201905092915050565b7f576d624170703a204f6e6c7920574d4220676174657761792063616e2063616c60008201527f6c20746869732066756e6374696f6e0000000000000000000000000000000000602082015250565b60006119e6602f83611979565b91506119f18261198a565b604082019050919050565b60006020820190508181036000830152611a15816119d9565b9050919050565b7f576d624170703a2052656d6f7465206973206e6f742074727573746564000000600082015250565b6000611a52601d83611979565b9150611a5d82611a1c565b602082019050919050565b60006020820190508181036000830152611a8181611a45565b9050919050565b6000819050919050565b600067ffffffffffffffff82169050919050565b6000819050919050565b6000611acb611ac6611ac184611a88565b611aa6565b611a92565b9050919050565b611adb81611ab0565b82525050565b6000602082019050611af66000830184611ad2565b92915050565b7f576d624170703a206d75737420686176652061646d696e20726f6c6520746f2060008201527f73657420747275737465642072656d6f74657300000000000000000000000000602082015250565b6000611b58603383611979565b9150611b6382611afc565b604082019050919050565b60006020820190508181036000830152611b8781611b4b565b9050919050565b7f576d624170703a20696e76616c696420696e7075740000000000000000000000600082015250565b6000611bc4601583611979565b9150611bcf82611b8e565b602082019050919050565b60006020820190508181036000830152611bf381611bb7565b9050919050565b7f4e487b7100000000000000000000000000000000000000000000000000000000600052603260045260246000fd5b611c32816113cc565b8114611c3d57600080fd5b50565b600081359050611c4f81611c29565b92915050565b600060208284031215611c6b57611c6a61129d565b5b6000611c7984828501611c40565b91505092915050565b7f416d6f756e7420746f206c6f636b2063616e6e6f74206265206e65676174697660008201527f6500000000000000000000000000000000000000000000000000000000000000602082015250565b6000611cde602183611979565b9150611ce982611c82565b604082019050919050565b60006020820190508181036000830152611d0d81611cd1565b9050919050565b7f4e487b7100000000000000000000000000000000000000000000000000000000600052601160045260246000fd5b6000611d4e826112a7565b9150611d59836112a7565b9250828203905081811115611d7157611d70611d14565b5b92915050565b7f496e73756666696369656e742066756e647320746f206c6f636b000000000000600082015250565b6000611dad601a83611979565b9150611db882611d77565b602082019050919050565b60006020820190508181036000830152611ddc81611da0565b9050919050565b6000611dee826112a7565b9150611df9836112a7565b9250828201905080821115611e1157611e10611d14565b5b92915050565b6000604082019050611e2c600083018561152d565b611e39602083018461131d565b9392505050565b6000604082019050611e55600083018561131d565b611e62602083018461152d565b9392505050565b6000611e748261148f565b9050919050565b611e8481611e69565b8114611e8f57600080fd5b50565b600081359050611ea181611e7b565b92915050565b60008060408385031215611ebe57611ebd61129d565b5b6000611ecc85828601611e92565b9250506020611edd858286016112c8565b9150509250929050565b600081519050919050565b600082825260208201905092915050565b60005b83811015611f21578082015181840152602081019050611f06565b60008484015250505050565b6000601f19601f8301169050919050565b6000611f4982611ee7565b611f538185611ef2565b9350611f63818560208601611f03565b611f6c81611f2d565b840191505092915050565b6000606082019050611f8c600083018661131d565b611f99602083018561152d565b8181036040830152611fab8184611f3e565b9050949350505050565b600081519050611fc48161140c565b92915050565b600060208284031215611fe057611fdf61129d565b5b6000611fee84828501611fb5565b91505092915050565b600060408201905061200c600083018561152d565b6120196020830184611465565b9392505050565b7f416d6f756e742063616e6e6f7420657863656564206465706f7369746564206260008201527f616c616e63650000000000000000000000000000000000000000000000000000602082015250565b600061207c602683611979565b915061208782612020565b604082019050919050565b600060208201905081810360008301526120ab8161206f565b905091905056fea26469706673582212207b4d23528dd10faf12e253a223ea4b752692838e88d69ad9e871ceb76225ec9b64736f6c63430008160033",
  "linkReferences": {},
  "deployedLinkReferences": {}
}