{
  "_format": "hh-sol-artifact-1",
  "contractName": "Example",
  "sourceName": "contracts/app/bug1.sol",
  "abi": [
    {
      "inputs": [],
      "stateMutability": "nonpayable",
      "type": "constructor"
    },
    {
      "inputs": [],
      "name": "getStuff",
      "outputs": [
        {
          "internalType": "uint256[]",
          "name": "",
          "type": "uint256[]"
        },
        {
          "internalType": "string",
          "name": "",
          "type": "string"
        }
      ],
      "stateMutability": "view",
      "type": "function"
    }
  ],
  "bytecode": "0x608060405234801561001057600080fd5b506040518060400160405280600b81526020017f5465737420737472696e6700000000000000000000000000000000000000000081525060009081610055919061037a565b506040518060e00160405280600060ff168152602001600160ff168152602001600260ff168152602001600360ff168152602001600460ff168152602001600560ff168152602001600660ff1681525060019060076100b59291906100bb565b5061044c565b8280548282559060005260206000209081019282156100fc579160200282015b828111156100fb578251829060ff169055916020019190600101906100db565b5b509050610109919061010d565b5090565b5b8082111561012657600081600090555060010161010e565b5090565b600081519050919050565b7f4e487b7100000000000000000000000000000000000000000000000000000000600052604160045260246000fd5b7f4e487b7100000000000000000000000000000000000000000000000000000000600052602260045260246000fd5b600060028204905060018216806101ab57607f821691505b6020821081036101be576101bd610164565b5b50919050565b60008190508160005260206000209050919050565b60006020601f8301049050919050565b600082821b905092915050565b6000600883026102267fffffffffffffffffffffffffffffffffffffffffffffffffffffffffffffffff826101e9565b61023086836101e9565b95508019841693508086168417925050509392505050565b6000819050919050565b6000819050919050565b600061027761027261026d84610248565b610252565b610248565b9050919050565b6000819050919050565b6102918361025c565b6102a561029d8261027e565b8484546101f6565b825550505050565b600090565b6102ba6102ad565b6102c5818484610288565b505050565b5b818110156102e9576102de6000826102b2565b6001810190506102cb565b5050565b601f82111561032e576102ff816101c4565b610308846101d9565b81016020851015610317578190505b61032b610323856101d9565b8301826102ca565b50505b505050565b600082821c905092915050565b600061035160001984600802610333565b1980831691505092915050565b600061036a8383610340565b9150826002028217905092915050565b6103838261012a565b67ffffffffffffffff81111561039c5761039b610135565b5b6103a68254610193565b6103b18282856102ed565b600060209050601f8311600181146103e457600084156103d2578287015190505b6103dc858261035e565b865550610444565b601f1984166103f2866101c4565b60005b8281101561041a578489015182556001820191506020850194506020810190506103f5565b868310156104375784890151610433601f891682610340565b8355505b6001600288020188555050505b505050505050565b6103618061045b6000396000f3fe608060405234801561001057600080fd5b506004361061002b5760003560e01c80638740575814610030575b600080fd5b61003861004f565b604051610046929190610294565b60405180910390f35b60608060016000818054806020026020016040519081016040528092919081815260200182805480156100a157602002820191906000526020600020905b81548152602001906001019080831161008d575b505050505091508080546100b4906102fa565b80601f01602080910402602001604051908101604052809291908181526020018280546100e0906102fa565b801561012d5780601f106101025761010080835404028352916020019161012d565b820191906000526020600020905b81548152906001019060200180831161011057829003601f168201915b50505050509050915091509091565b600081519050919050565b600082825260208201905092915050565b6000819050602082019050919050565b6000819050919050565b61017b81610168565b82525050565b600061018d8383610172565b60208301905092915050565b6000602082019050919050565b60006101b18261013c565b6101bb8185610147565b93506101c683610158565b8060005b838110156101f75781516101de8882610181565b97506101e983610199565b9250506001810190506101ca565b5085935050505092915050565b600081519050919050565b600082825260208201905092915050565b60005b8381101561023e578082015181840152602081019050610223565b60008484015250505050565b6000601f19601f8301169050919050565b600061026682610204565b610270818561020f565b9350610280818560208601610220565b6102898161024a565b840191505092915050565b600060408201905081810360008301526102ae81856101a6565b905081810360208301526102c2818461025b565b90509392505050565b7f4e487b7100000000000000000000000000000000000000000000000000000000600052602260045260246000fd5b6000600282049050600182168061031257607f821691505b602082108103610325576103246102cb565b5b5091905056fea2646970667358221220424a2883c30059209f9ea03015e7e467a7654843b031c38e1f8439be0f1db03464736f6c63430008160033",
  "linkReferences": {},
  "deployedLinkReferences": {}
}