{
  "_format": "hh-sol-artifact-1",
  "contractName": "lockContract",
  "sourceName": "contracts/deployed/lockContract.sol",
  "abi": [
    {
      "inputs": [
        {
          "internalType": "address",
          "name": "_admin",
          "type": "address"
        },
        {
          "internalType": "address",
          "name": "_wmbGateway",
          "type": "address"
        }
      ],
      "stateMutability": "nonpayable",
      "type": "constructor"
    },
    {
      "inputs": [],
      "name": "AccessControlBadConfirmation",
      "type": "error"
    },
    {
      "inputs": [
        {
          "internalType": "address",
          "name": "account",
          "type": "address"
        },
        {
          "internalType": "bytes32",
          "name": "neededRole",
          "type": "bytes32"
        }
      ],
      "name": "AccessControlUnauthorizedAccount",
      "type": "error"
    },
    {
      "inputs": [],
      "name": "InvalidInitialization",
      "type": "error"
    },
    {
      "inputs": [],
      "name": "NotInitializing",
      "type": "error"
    },
    {
      "anonymous": false,
      "inputs": [
        {
          "indexed": true,
          "internalType": "bytes32",
          "name": "messageId",
          "type": "bytes32"
        },
        {
          "indexed": true,
          "internalType": "uint256",
          "name": "fromChainId",
          "type": "uint256"
        },
        {
          "indexed": true,
          "internalType": "address",
          "name": "to",
          "type": "address"
        },
        {
          "indexed": false,
          "internalType": "uint256",
          "name": "amount",
          "type": "uint256"
        },
        {
          "indexed": false,
          "internalType": "address",
          "name": "fromSC",
          "type": "address"
        }
      ],
      "name": "CrossChainMint",
      "type": "event"
    },
    {
      "anonymous": false,
      "inputs": [
        {
          "indexed": false,
          "internalType": "uint64",
          "name": "version",
          "type": "uint64"
        }
      ],
      "name": "Initialized",
      "type": "event"
    },
    {
      "anonymous": false,
      "inputs": [
        {
          "indexed": true,
          "internalType": "bytes32",
          "name": "role",
          "type": "bytes32"
        },
        {
          "indexed": true,
          "internalType": "bytes32",
          "name": "previousAdminRole",
          "type": "bytes32"
        },
        {
          "indexed": true,
          "internalType": "bytes32",
          "name": "newAdminRole",
          "type": "bytes32"
        }
      ],
      "name": "RoleAdminChanged",
      "type": "event"
    },
    {
      "anonymous": false,
      "inputs": [
        {
          "indexed": true,
          "internalType": "bytes32",
          "name": "role",
          "type": "bytes32"
        },
        {
          "indexed": true,
          "internalType": "address",
          "name": "account",
          "type": "address"
        },
        {
          "indexed": true,
          "internalType": "address",
          "name": "sender",
          "type": "address"
        }
      ],
      "name": "RoleGranted",
      "type": "event"
    },
    {
      "anonymous": false,
      "inputs": [
        {
          "indexed": true,
          "internalType": "bytes32",
          "name": "role",
          "type": "bytes32"
        },
        {
          "indexed": true,
          "internalType": "address",
          "name": "account",
          "type": "address"
        },
        {
          "indexed": true,
          "internalType": "address",
          "name": "sender",
          "type": "address"
        }
      ],
      "name": "RoleRevoked",
      "type": "event"
    },
    {
      "anonymous": false,
      "inputs": [
        {
          "indexed": false,
          "internalType": "address",
          "name": "user",
          "type": "address"
        },
        {
          "indexed": false,
          "internalType": "uint256",
          "name": "amount",
          "type": "uint256"
        }
      ],
      "name": "coinsLocked",
      "type": "event"
    },
    {
      "inputs": [],
      "name": "DEFAULT_ADMIN_ROLE",
      "outputs": [
        {
          "internalType": "bytes32",
          "name": "",
          "type": "bytes32"
        }
      ],
      "stateMutability": "view",
      "type": "function"
    },
    {
      "inputs": [
        {
          "internalType": "address",
          "name": "user",
          "type": "address"
        }
      ],
      "name": "balanceOf",
      "outputs": [
        {
          "internalType": "uint256",
          "name": "",
          "type": "uint256"
        }
      ],
      "stateMutability": "view",
      "type": "function"
    },
    {
      "inputs": [
        {
          "internalType": "uint256",
          "name": "toChainId",
          "type": "uint256"
        },
        {
          "internalType": "address",
          "name": "toSC",
          "type": "address"
        },
        {
          "internalType": "address",
          "name": "toUser",
          "type": "address"
        },
        {
          "internalType": "uint256",
          "name": "gasLimit",
          "type": "uint256"
        }
      ],
      "name": "crossTo",
      "outputs": [],
      "stateMutability": "payable",
      "type": "function"
    },
    {
      "inputs": [
        {
          "internalType": "uint256",
          "name": "toChain",
          "type": "uint256"
        },
        {
          "internalType": "uint256",
          "name": "gasLimit",
          "type": "uint256"
        }
      ],
      "name": "estimateFee",
      "outputs": [
        {
          "internalType": "uint256",
          "name": "",
          "type": "uint256"
        }
      ],
      "stateMutability": "view",
      "type": "function"
    },
    {
      "inputs": [
        {
          "internalType": "bytes32",
          "name": "role",
          "type": "bytes32"
        }
      ],
      "name": "getRoleAdmin",
      "outputs": [
        {
          "internalType": "bytes32",
          "name": "",
          "type": "bytes32"
        }
      ],
      "stateMutability": "view",
      "type": "function"
    },
    {
      "inputs": [
        {
          "internalType": "bytes32",
          "name": "role",
          "type": "bytes32"
        },
        {
          "internalType": "address",
          "name": "account",
          "type": "address"
        }
      ],
      "name": "grantRole",
      "outputs": [],
      "stateMutability": "nonpayable",
      "type": "function"
    },
    {
      "inputs": [
        {
          "internalType": "bytes32",
          "name": "role",
          "type": "bytes32"
        },
        {
          "internalType": "address",
          "name": "account",
          "type": "address"
        }
      ],
      "name": "hasRole",
      "outputs": [
        {
          "internalType": "bool",
          "name": "",
          "type": "bool"
        }
      ],
      "stateMutability": "view",
      "type": "function"
    },
    {
      "inputs": [
        {
          "internalType": "address",
          "name": "admin",
          "type": "address"
        },
        {
          "internalType": "address",
          "name": "_wmbGateway",
          "type": "address"
        }
      ],
      "name": "initialize",
      "outputs": [],
      "stateMutability": "nonpayable",
      "type": "function"
    },
    {
      "inputs": [
        {
          "internalType": "bytes32",
          "name": "role",
          "type": "bytes32"
        },
        {
          "internalType": "address",
          "name": "callerConfirmation",
          "type": "address"
        }
      ],
      "name": "renounceRole",
      "outputs": [],
      "stateMutability": "nonpayable",
      "type": "function"
    },
    {
      "inputs": [
        {
          "internalType": "bytes32",
          "name": "role",
          "type": "bytes32"
        },
        {
          "internalType": "address",
          "name": "account",
          "type": "address"
        }
      ],
      "name": "revokeRole",
      "outputs": [],
      "stateMutability": "nonpayable",
      "type": "function"
    },
    {
      "inputs": [
        {
          "internalType": "uint256[]",
          "name": "fromChainIds",
          "type": "uint256[]"
        },
        {
          "internalType": "address[]",
          "name": "froms",
          "type": "address[]"
        },
        {
          "internalType": "bool[]",
          "name": "trusted",
          "type": "bool[]"
        }
      ],
      "name": "setTrustedRemotes",
      "outputs": [],
      "stateMutability": "nonpayable",
      "type": "function"
    },
    {
      "inputs": [
        {
          "internalType": "bytes4",
          "name": "interfaceId",
          "type": "bytes4"
        }
      ],
      "name": "supportsInterface",
      "outputs": [
        {
          "internalType": "bool",
          "name": "",
          "type": "bool"
        }
      ],
      "stateMutability": "view",
      "type": "function"
    },
    {
      "inputs": [],
      "name": "totalSupply",
      "outputs": [
        {
          "internalType": "uint256",
          "name": "",
          "type": "uint256"
        }
      ],
      "stateMutability": "view",
      "type": "function"
    },
    {
      "inputs": [
        {
          "internalType": "uint256",
          "name": "",
          "type": "uint256"
        },
        {
          "internalType": "address",
          "name": "",
          "type": "address"
        }
      ],
      "name": "trustedRemotes",
      "outputs": [
        {
          "internalType": "bool",
          "name": "",
          "type": "bool"
        }
      ],
      "stateMutability": "view",
      "type": "function"
    },
    {
      "inputs": [],
      "name": "wmbGateway",
      "outputs": [
        {
          "internalType": "address",
          "name": "",
          "type": "address"
        }
      ],
      "stateMutability": "view",
      "type": "function"
    },
    {
      "inputs": [
        {
          "internalType": "bytes",
          "name": "data",
          "type": "bytes"
        },
        {
          "internalType": "bytes32",
          "name": "messageId",
          "type": "bytes32"
        },
        {
          "internalType": "uint256",
          "name": "fromChainId",
          "type": "uint256"
        },
        {
          "internalType": "address",
          "name": "from",
          "type": "address"
        }
      ],
      "name": "wmbReceive",
      "outputs": [],
      "stateMutability": "nonpayable",
      "type": "function"
    }
  ],
  "bytecode": "0x60806040523480156200001157600080fd5b506040516200252c3803806200252c833981810160405281019062000037919062000446565b6200004982826200005160201b60201c565b50506200050b565b6000620000636200023f60201b60201c565b905060008160000160089054906101000a900460ff1615905060008260000160009054906101000a900467ffffffffffffffff1690506000808267ffffffffffffffff16148015620000b25750825b9050600060018367ffffffffffffffff16148015620000e8575060003073ffffffffffffffffffffffffffffffffffffffff163b145b905081158015620000f7575080155b156200012f576040517ff92ee8a900000000000000000000000000000000000000000000000000000000815260040160405180910390fd5b60018560000160006101000a81548167ffffffffffffffff021916908367ffffffffffffffff1602179055508315620001805760018560000160086101000a81548160ff0219169083151502179055505b620001956000801b886200026760201b60201c565b5085600160006101000a81548173ffffffffffffffffffffffffffffffffffffffff021916908373ffffffffffffffffffffffffffffffffffffffff1602179055508315620002365760008560000160086101000a81548160ff0219169083151502179055507fc7f505b2f371ae2175ee4913f4499e1f2633a7b5936321eed1cdaeb6115181d260016040516200022d9190620004ee565b60405180910390a15b50505050505050565b60007ff0c57e16840df040f15088dc2f81fe391c3923bec73e23a9662efc9c229c6a00905090565b60006200027b83836200036a60201b60201c565b6200035f57600160008085815260200190815260200160002060000160008473ffffffffffffffffffffffffffffffffffffffff1673ffffffffffffffffffffffffffffffffffffffff16815260200190815260200160002060006101000a81548160ff021916908315150217905550620002fb620003d460201b60201c565b73ffffffffffffffffffffffffffffffffffffffff168273ffffffffffffffffffffffffffffffffffffffff16847f2f8788117e7eff1d82e926ec794901d17c78024a50270940304540a733656f0d60405160405180910390a46001905062000364565b600090505b92915050565b600080600084815260200190815260200160002060000160008373ffffffffffffffffffffffffffffffffffffffff1673ffffffffffffffffffffffffffffffffffffffff16815260200190815260200160002060009054906101000a900460ff16905092915050565b600033905090565b600080fd5b600073ffffffffffffffffffffffffffffffffffffffff82169050919050565b60006200040e82620003e1565b9050919050565b620004208162000401565b81146200042c57600080fd5b50565b600081519050620004408162000415565b92915050565b6000806040838503121562000460576200045f620003dc565b5b600062000470858286016200042f565b925050602062000483858286016200042f565b9150509250929050565b6000819050919050565b600067ffffffffffffffff82169050919050565b6000819050919050565b6000620004d6620004d0620004ca846200048d565b620004ab565b62000497565b9050919050565b620004e881620004b5565b82525050565b6000602082019050620005056000830184620004dd565b92915050565b612011806200051b6000396000f3fe6080604052600436106100f25760003560e01c8063485cc9551161008a57806391d148541161005957806391d148541461032a578063a217fddf14610367578063d547741f14610392578063e3d4683b146103bb576100f2565b8063485cc9551461027f57806370a08231146102a85780637d2df3f4146102e55780637f34071d14610301576100f2565b80632f2ff15d116100c65780632f2ff15d146101d95780633088a5f91461020257806336568abe1461022d5780633a1a5b7614610256576100f2565b8062e1d8d0146100f757806301ffc9a71461013457806318160ddd14610171578063248a9ca31461019c575b600080fd5b34801561010357600080fd5b5061011e600480360381019061011991906111b7565b6103f8565b60405161012b9190611206565b60405180910390f35b34801561014057600080fd5b5061015b60048036038101906101569190611279565b61049f565b60405161016891906112c1565b60405180910390f35b34801561017d57600080fd5b50610186610519565b6040516101939190611206565b60405180910390f35b3480156101a857600080fd5b506101c360048036038101906101be9190611312565b61051f565b6040516101d0919061134e565b60405180910390f35b3480156101e557600080fd5b5061020060048036038101906101fb91906113c7565b61053e565b005b34801561020e57600080fd5b50610217610560565b6040516102249190611416565b60405180910390f35b34801561023957600080fd5b50610254600480360381019061024f91906113c7565b610586565b005b34801561026257600080fd5b5061027d60048036038101906102789190611496565b610601565b005b34801561028b57600080fd5b506102a660048036038101906102a1919061151e565b610742565b005b3480156102b457600080fd5b506102cf60048036038101906102ca919061155e565b610918565b6040516102dc9190611206565b60405180910390f35b6102ff60048036038101906102fa919061158b565b610961565b005b34801561030d57600080fd5b50610328600480360381019061032391906116f4565b610aa0565b005b34801561033657600080fd5b50610351600480360381019061034c91906113c7565b610c38565b60405161035e91906112c1565b60405180910390f35b34801561037357600080fd5b5061037c610ca2565b604051610389919061134e565b60405180910390f35b34801561039e57600080fd5b506103b960048036038101906103b491906113c7565b610ca9565b005b3480156103c757600080fd5b506103e260048036038101906103dd91906117a8565b610ccb565b6040516103ef91906112c1565b60405180910390f35b6000600160009054906101000a900473ffffffffffffffffffffffffffffffffffffffff1673ffffffffffffffffffffffffffffffffffffffff1662e1d8d084846040518363ffffffff1660e01b81526004016104569291906117e8565b602060405180830381865afa158015610473573d6000803e3d6000fd5b505050506040513d601f19601f820116820180604052508101906104979190611826565b905092915050565b60007f7965db0b000000000000000000000000000000000000000000000000000000007bffffffffffffffffffffffffffffffffffffffffffffffffffffffff1916827bffffffffffffffffffffffffffffffffffffffffffffffffffffffff19161480610512575061051182610cfa565b5b9050919050565b60035481565b6000806000838152602001908152602001600020600101549050919050565b6105478261051f565b61055081610d64565b61055a8383610d78565b50505050565b600160009054906101000a900473ffffffffffffffffffffffffffffffffffffffff1681565b61058e610e69565b73ffffffffffffffffffffffffffffffffffffffff168173ffffffffffffffffffffffffffffffffffffffff16146105f2576040517f6697b23200000000000000000000000000000000000000000000000000000000815260040160405180910390fd5b6105fc8282610e71565b505050565b600160009054906101000a900473ffffffffffffffffffffffffffffffffffffffff1673ffffffffffffffffffffffffffffffffffffffff163373ffffffffffffffffffffffffffffffffffffffff1614610691576040517f08c379a0000000000000000000000000000000000000000000000000000000008152600401610688906118d6565b60405180910390fd5b6002600083815260200190815260200160002060008273ffffffffffffffffffffffffffffffffffffffff1673ffffffffffffffffffffffffffffffffffffffff16815260200190815260200160002060009054906101000a900460ff1661072e576040517f08c379a000000000000000000000000000000000000000000000000000000000815260040161072590611942565b60405180910390fd5b61073b8585858585610f63565b5050505050565b600061074c611045565b905060008160000160089054906101000a900460ff1615905060008260000160009054906101000a900467ffffffffffffffff1690506000808267ffffffffffffffff1614801561079a5750825b9050600060018367ffffffffffffffff161480156107cf575060003073ffffffffffffffffffffffffffffffffffffffff163b145b9050811580156107dd575080155b15610814576040517ff92ee8a900000000000000000000000000000000000000000000000000000000815260040160405180910390fd5b60018560000160006101000a81548167ffffffffffffffff021916908367ffffffffffffffff16021790555083156108645760018560000160086101000a81548160ff0219169083151502179055505b6108716000801b88610d78565b5085600160006101000a81548173ffffffffffffffffffffffffffffffffffffffff021916908373ffffffffffffffffffffffffffffffffffffffff160217905550831561090f5760008560000160086101000a81548160ff0219169083151502179055507fc7f505b2f371ae2175ee4913f4499e1f2633a7b5936321eed1cdaeb6115181d2600160405161090691906119bb565b60405180910390a15b50505050505050565b6000600460008373ffffffffffffffffffffffffffffffffffffffff1673ffffffffffffffffffffffffffffffffffffffff168152602001908152602001600020549050919050565b600034116109a4576040517f08c379a000000000000000000000000000000000000000000000000000000000815260040161099b90611a22565b60405180910390fd5b60006109b085836103f8565b9050600081346109c09190611a71565b905080600460003373ffffffffffffffffffffffffffffffffffffffff1673ffffffffffffffffffffffffffffffffffffffff1681526020019081526020016000206000828254610a119190611aa5565b925050819055508060036000828254610a2a9190611aa5565b92505081905550610a5e86868684604051602001610a49929190611ad9565b6040516020818303038152906040528561106d565b507f252449aa0b7de4aef34faa5608272066c34f2cea678fa4ee8850380955ef09b63334604051610a90929190611ad9565b60405180910390a1505050505050565b610aad6000801b33610c38565b610aec576040517f08c379a0000000000000000000000000000000000000000000000000000000008152600401610ae390611b74565b60405180910390fd5b8383905086869050148015610b0657508181905084849050145b610b45576040517f08c379a0000000000000000000000000000000000000000000000000000000008152600401610b3c90611be0565b60405180910390fd5b60005b86869050811015610c2f57828282818110610b6657610b65611c00565b5b9050602002016020810190610b7b9190611c5b565b60026000898985818110610b9257610b91611c00565b5b9050602002013581526020019081526020016000206000878785818110610bbc57610bbb611c00565b5b9050602002016020810190610bd1919061155e565b73ffffffffffffffffffffffffffffffffffffffff1673ffffffffffffffffffffffffffffffffffffffff16815260200190815260200160002060006101000a81548160ff0219169083151502179055508080600101915050610b48565b50505050505050565b600080600084815260200190815260200160002060000160008373ffffffffffffffffffffffffffffffffffffffff1673ffffffffffffffffffffffffffffffffffffffff16815260200190815260200160002060009054906101000a900460ff16905092915050565b6000801b81565b610cb28261051f565b610cbb81610d64565b610cc58383610e71565b50505050565b60026020528160005260406000206020528060005260406000206000915091509054906101000a900460ff1681565b60007f01ffc9a7000000000000000000000000000000000000000000000000000000007bffffffffffffffffffffffffffffffffffffffffffffffffffffffff1916827bffffffffffffffffffffffffffffffffffffffffffffffffffffffff1916149050919050565b610d7581610d70610e69565b61111c565b50565b6000610d848383610c38565b610e5e57600160008085815260200190815260200160002060000160008473ffffffffffffffffffffffffffffffffffffffff1673ffffffffffffffffffffffffffffffffffffffff16815260200190815260200160002060006101000a81548160ff021916908315150217905550610dfb610e69565b73ffffffffffffffffffffffffffffffffffffffff168273ffffffffffffffffffffffffffffffffffffffff16847f2f8788117e7eff1d82e926ec794901d17c78024a50270940304540a733656f0d60405160405180910390a460019050610e63565b600090505b92915050565b600033905090565b6000610e7d8383610c38565b15610f5857600080600085815260200190815260200160002060000160008473ffffffffffffffffffffffffffffffffffffffff1673ffffffffffffffffffffffffffffffffffffffff16815260200190815260200160002060006101000a81548160ff021916908315150217905550610ef5610e69565b73ffffffffffffffffffffffffffffffffffffffff168273ffffffffffffffffffffffffffffffffffffffff16847ff6391f5c32d9c69d2a47ea670b442974b53935d1edc7fd64eb21e047a839171b60405160405180910390a460019050610f5d565b600090505b92915050565b6000808686810190610f759190611e07565b50925092505080600460008473ffffffffffffffffffffffffffffffffffffffff1673ffffffffffffffffffffffffffffffffffffffff1681526020019081526020016000206000828254610fca9190611aa5565b925050819055508060036000828254610fe39190611aa5565b925050819055508173ffffffffffffffffffffffffffffffffffffffff1684867fe54144d90f48a9826fdec75d150b5bfc91c0752524eb604a5ffba496b6dd0aab8487604051611034929190611e8a565b60405180910390a450505050505050565b60007ff0c57e16840df040f15088dc2f81fe391c3923bec73e23a9662efc9c229c6a00905090565b6000600160009054906101000a900473ffffffffffffffffffffffffffffffffffffffff1673ffffffffffffffffffffffffffffffffffffffff1663fe39827b838787876040518563ffffffff1660e01b81526004016110cf93929190611f32565b60206040518083038185885af11580156110ed573d6000803e3d6000fd5b50505050506040513d601f19601f820116820180604052508101906111129190611f85565b9050949350505050565b6111268282610c38565b6111695780826040517fe2517d3f000000000000000000000000000000000000000000000000000000008152600401611160929190611fb2565b60405180910390fd5b5050565b6000604051905090565b600080fd5b600080fd5b6000819050919050565b61119481611181565b811461119f57600080fd5b50565b6000813590506111b18161118b565b92915050565b600080604083850312156111ce576111cd611177565b5b60006111dc858286016111a2565b92505060206111ed858286016111a2565b9150509250929050565b61120081611181565b82525050565b600060208201905061121b60008301846111f7565b92915050565b60007fffffffff0000000000000000000000000000000000000000000000000000000082169050919050565b61125681611221565b811461126157600080fd5b50565b6000813590506112738161124d565b92915050565b60006020828403121561128f5761128e611177565b5b600061129d84828501611264565b91505092915050565b60008115159050919050565b6112bb816112a6565b82525050565b60006020820190506112d660008301846112b2565b92915050565b6000819050919050565b6112ef816112dc565b81146112fa57600080fd5b50565b60008135905061130c816112e6565b92915050565b60006020828403121561132857611327611177565b5b6000611336848285016112fd565b91505092915050565b611348816112dc565b82525050565b6000602082019050611363600083018461133f565b92915050565b600073ffffffffffffffffffffffffffffffffffffffff82169050919050565b600061139482611369565b9050919050565b6113a481611389565b81146113af57600080fd5b50565b6000813590506113c18161139b565b92915050565b600080604083850312156113de576113dd611177565b5b60006113ec858286016112fd565b92505060206113fd858286016113b2565b9150509250929050565b61141081611389565b82525050565b600060208201905061142b6000830184611407565b92915050565b600080fd5b600080fd5b600080fd5b60008083601f84011261145657611455611431565b5b8235905067ffffffffffffffff81111561147357611472611436565b5b60208301915083600182028301111561148f5761148e61143b565b5b9250929050565b6000806000806000608086880312156114b2576114b1611177565b5b600086013567ffffffffffffffff8111156114d0576114cf61117c565b5b6114dc88828901611440565b955095505060206114ef888289016112fd565b9350506040611500888289016111a2565b9250506060611511888289016113b2565b9150509295509295909350565b6000806040838503121561153557611534611177565b5b6000611543858286016113b2565b9250506020611554858286016113b2565b9150509250929050565b60006020828403121561157457611573611177565b5b6000611582848285016113b2565b91505092915050565b600080600080608085870312156115a5576115a4611177565b5b60006115b3878288016111a2565b94505060206115c4878288016113b2565b93505060406115d5878288016113b2565b92505060606115e6878288016111a2565b91505092959194509250565b60008083601f84011261160857611607611431565b5b8235905067ffffffffffffffff81111561162557611624611436565b5b6020830191508360208202830111156116415761164061143b565b5b9250929050565b60008083601f84011261165e5761165d611431565b5b8235905067ffffffffffffffff81111561167b5761167a611436565b5b6020830191508360208202830111156116975761169661143b565b5b9250929050565b60008083601f8401126116b4576116b3611431565b5b8235905067ffffffffffffffff8111156116d1576116d0611436565b5b6020830191508360208202830111156116ed576116ec61143b565b5b9250929050565b6000806000806000806060878903121561171157611710611177565b5b600087013567ffffffffffffffff81111561172f5761172e61117c565b5b61173b89828a016115f2565b9650965050602087013567ffffffffffffffff81111561175e5761175d61117c565b5b61176a89828a01611648565b9450945050604087013567ffffffffffffffff81111561178d5761178c61117c565b5b61179989828a0161169e565b92509250509295509295509295565b600080604083850312156117bf576117be611177565b5b60006117cd858286016111a2565b92505060206117de858286016113b2565b9150509250929050565b60006040820190506117fd60008301856111f7565b61180a60208301846111f7565b9392505050565b6000815190506118208161118b565b92915050565b60006020828403121561183c5761183b611177565b5b600061184a84828501611811565b91505092915050565b600082825260208201905092915050565b7f576d624170703a204f6e6c7920574d4220676174657761792063616e2063616c60008201527f6c20746869732066756e6374696f6e0000000000000000000000000000000000602082015250565b60006118c0602f83611853565b91506118cb82611864565b604082019050919050565b600060208201905081810360008301526118ef816118b3565b9050919050565b7f576d624170703a2052656d6f7465206973206e6f742074727573746564000000600082015250565b600061192c601d83611853565b9150611937826118f6565b602082019050919050565b6000602082019050818103600083015261195b8161191f565b9050919050565b6000819050919050565b600067ffffffffffffffff82169050919050565b6000819050919050565b60006119a56119a061199b84611962565b611980565b61196c565b9050919050565b6119b58161198a565b82525050565b60006020820190506119d060008301846119ac565b92915050565b7f416d6f756e74206d757374206d617463682076616c75652073656e7400000000600082015250565b6000611a0c601c83611853565b9150611a17826119d6565b602082019050919050565b60006020820190508181036000830152611a3b816119ff565b9050919050565b7f4e487b7100000000000000000000000000000000000000000000000000000000600052601160045260246000fd5b6000611a7c82611181565b9150611a8783611181565b9250828203905081811115611a9f57611a9e611a42565b5b92915050565b6000611ab082611181565b9150611abb83611181565b9250828201905080821115611ad357611ad2611a42565b5b92915050565b6000604082019050611aee6000830185611407565b611afb60208301846111f7565b9392505050565b7f576d624170703a206d75737420686176652061646d696e20726f6c6520746f2060008201527f73657420747275737465642072656d6f74657300000000000000000000000000602082015250565b6000611b5e603383611853565b9150611b6982611b02565b604082019050919050565b60006020820190508181036000830152611b8d81611b51565b9050919050565b7f576d624170703a20696e76616c696420696e7075740000000000000000000000600082015250565b6000611bca601583611853565b9150611bd582611b94565b602082019050919050565b60006020820190508181036000830152611bf981611bbd565b9050919050565b7f4e487b7100000000000000000000000000000000000000000000000000000000600052603260045260246000fd5b611c38816112a6565b8114611c4357600080fd5b50565b600081359050611c5581611c2f565b92915050565b600060208284031215611c7157611c70611177565b5b6000611c7f84828501611c46565b91505092915050565b6000611c9382611369565b9050919050565b611ca381611c88565b8114611cae57600080fd5b50565b600081359050611cc081611c9a565b92915050565b600080fd5b6000601f19601f8301169050919050565b7f4e487b7100000000000000000000000000000000000000000000000000000000600052604160045260246000fd5b611d1482611ccb565b810181811067ffffffffffffffff82111715611d3357611d32611cdc565b5b80604052505050565b6000611d4661116d565b9050611d528282611d0b565b919050565b600067ffffffffffffffff821115611d7257611d71611cdc565b5b611d7b82611ccb565b9050602081019050919050565b82818337600083830152505050565b6000611daa611da584611d57565b611d3c565b905082815260208101848484011115611dc657611dc5611cc6565b5b611dd1848285611d88565b509392505050565b600082601f830112611dee57611ded611431565b5b8135611dfe848260208601611d97565b91505092915050565b60008060008060808587031215611e2157611e20611177565b5b6000611e2f87828801611cb1565b9450506020611e4087828801611cb1565b9350506040611e51878288016111a2565b925050606085013567ffffffffffffffff811115611e7257611e7161117c565b5b611e7e87828801611dd9565b91505092959194509250565b6000604082019050611e9f60008301856111f7565b611eac6020830184611407565b9392505050565b600081519050919050565b600082825260208201905092915050565b60005b83811015611eed578082015181840152602081019050611ed2565b60008484015250505050565b6000611f0482611eb3565b611f0e8185611ebe565b9350611f1e818560208601611ecf565b611f2781611ccb565b840191505092915050565b6000606082019050611f4760008301866111f7565b611f546020830185611407565b8181036040830152611f668184611ef9565b9050949350505050565b600081519050611f7f816112e6565b92915050565b600060208284031215611f9b57611f9a611177565b5b6000611fa984828501611f70565b91505092915050565b6000604082019050611fc76000830185611407565b611fd4602083018461133f565b939250505056fea264697066735822122096a669e0c8952656c0fedf27d891d74d95c10846e453b0fe8b4f610a6f32e57864736f6c63430008160033",
  "linkReferences": {},
  "deployedLinkReferences": {}
}