{
  "_format": "hh-sol-artifact-1",
  "contractName": "Test",
  "sourceName": "contracts/app/test.sol",
  "abi": [
    {
      "inputs": [
        {
          "internalType": "address",
          "name": "",
          "type": "address"
        }
      ],
      "name": "balances",
      "outputs": [
        {
          "internalType": "uint256",
          "name": "",
          "type": "uint256"
        }
      ],
      "stateMutability": "view",
      "type": "function"
    },
    {
      "inputs": [],
      "name": "deposit",
      "outputs": [],
      "stateMutability": "payable",
      "type": "function"
    },
    {
      "inputs": [
        {
          "internalType": "uint256",
          "name": "amount",
          "type": "uint256"
        }
      ],
      "name": "withdraw",
      "outputs": [],
      "stateMutability": "nonpayable",
      "type": "function"
    }
  ],
  "bytecode": "0x608060405234801561001057600080fd5b50610599806100206000396000f3fe6080604052600436106100345760003560e01c806327e235e3146100395780632e1a7d4d14610076578063d0e30db01461009f575b600080fd5b34801561004557600080fd5b50610060600480360381019061005b91906102dd565b6100a9565b60405161006d9190610323565b60405180910390f35b34801561008257600080fd5b5061009d6004803603810190610098919061036a565b6100c1565b005b6100a76101e0565b005b60006020528060005260406000206000915090505481565b806000803373ffffffffffffffffffffffffffffffffffffffff1673ffffffffffffffffffffffffffffffffffffffff1681526020019081526020016000205411610141576040517f08c379a00000000000000000000000000000000000000000000000000000000081526004016101389061041a565b60405180910390fd5b806000803373ffffffffffffffffffffffffffffffffffffffff1673ffffffffffffffffffffffffffffffffffffffff168152602001908152602001600020600082825461018f9190610469565b925050819055503373ffffffffffffffffffffffffffffffffffffffff166108fc829081150290604051600060405180830381858888f193505050501580156101dc573d6000803e3d6000fd5b5050565b60003411610223576040517f08c379a000000000000000000000000000000000000000000000000000000000815260040161021a9061050f565b60405180910390fd5b346000803373ffffffffffffffffffffffffffffffffffffffff1673ffffffffffffffffffffffffffffffffffffffff1681526020019081526020016000206000828254610271919061052f565b92505081905550565b600080fd5b600073ffffffffffffffffffffffffffffffffffffffff82169050919050565b60006102aa8261027f565b9050919050565b6102ba8161029f565b81146102c557600080fd5b50565b6000813590506102d7816102b1565b92915050565b6000602082840312156102f3576102f261027a565b5b6000610301848285016102c8565b91505092915050565b6000819050919050565b61031d8161030a565b82525050565b60006020820190506103386000830184610314565b92915050565b6103478161030a565b811461035257600080fd5b50565b6000813590506103648161033e565b92915050565b6000602082840312156103805761037f61027a565b5b600061038e84828501610355565b91505092915050565b600082825260208201905092915050565b7f416d6f756e7420746f2077697468647261772063616e6e6f742065786365656460008201527f20617661696c61626c652062616c616e63650000000000000000000000000000602082015250565b6000610404603283610397565b915061040f826103a8565b604082019050919050565b60006020820190508181036000830152610433816103f7565b9050919050565b7f4e487b7100000000000000000000000000000000000000000000000000000000600052601160045260246000fd5b60006104748261030a565b915061047f8361030a565b92508282039050818111156104975761049661043a565b5b92915050565b7f416d6f756e7420746f206465706f7369742073686f756c64206265206d6f726560008201527f207468616e203000000000000000000000000000000000000000000000000000602082015250565b60006104f9602783610397565b91506105048261049d565b604082019050919050565b60006020820190508181036000830152610528816104ec565b9050919050565b600061053a8261030a565b91506105458361030a565b925082820190508082111561055d5761055c61043a565b5b9291505056fea264697066735822122025dda3a31982486a176239a4d6460e41b5ab37ae4abe3ecf1551233fa65a358e64736f6c63430008160033",
  "linkReferences": {},
  "deployedLinkReferences": {}
}