{
  "_format": "hh-sol-artifact-1",
  "contractName": "lockCoins",
  "sourceName": "contracts/app/lockCoins.sol",
  "abi": [
    {
      "anonymous": false,
      "inputs": [
        {
          "indexed": false,
          "internalType": "address",
          "name": "user",
          "type": "address"
        },
        {
          "indexed": false,
          "internalType": "uint256",
          "name": "amount",
          "type": "uint256"
        }
      ],
      "name": "coinsLocked",
      "type": "event"
    },
    {
      "anonymous": false,
      "inputs": [
        {
          "indexed": false,
          "internalType": "address",
          "name": "user",
          "type": "address"
        },
        {
          "indexed": false,
          "internalType": "uint256",
          "name": "amount",
          "type": "uint256"
        }
      ],
      "name": "coinsReleased",
      "type": "event"
    },
    {
      "inputs": [],
      "name": "_lockCoin",
      "outputs": [],
      "stateMutability": "payable",
      "type": "function"
    },
    {
      "inputs": [
        {
          "internalType": "address",
          "name": "user",
          "type": "address"
        }
      ],
      "name": "balanceOf",
      "outputs": [
        {
          "internalType": "uint256",
          "name": "",
          "type": "uint256"
        }
      ],
      "stateMutability": "view",
      "type": "function"
    },
    {
      "inputs": [],
      "name": "totalSupply",
      "outputs": [
        {
          "internalType": "uint256",
          "name": "",
          "type": "uint256"
        }
      ],
      "stateMutability": "view",
      "type": "function"
    },
    {
      "inputs": [
        {
          "internalType": "uint256",
          "name": "amount",
          "type": "uint256"
        }
      ],
      "name": "withdrawCoins",
      "outputs": [],
      "stateMutability": "nonpayable",
      "type": "function"
    }
  ],
  "bytecode": "0x608060405234801561001057600080fd5b50610698806100206000396000f3fe60806040526004361061003f5760003560e01c806318160ddd1461004457806370a082311461006f57806396cdcfc6146100ac578063f9f95a0f146100b6575b600080fd5b34801561005057600080fd5b506100596100df565b60405161006691906103a6565b60405180910390f35b34801561007b57600080fd5b5061009660048036038101906100919190610424565b6100e5565b6040516100a391906103a6565b60405180910390f35b6100b461012e565b005b3480156100c257600080fd5b506100dd60048036038101906100d8919061047d565b61021a565b005b60005481565b6000600160008373ffffffffffffffffffffffffffffffffffffffff1673ffffffffffffffffffffffffffffffffffffffff168152602001908152602001600020549050919050565b60003411610171576040517f08c379a000000000000000000000000000000000000000000000000000000000815260040161016890610507565b60405180910390fd5b34600160003373ffffffffffffffffffffffffffffffffffffffff1673ffffffffffffffffffffffffffffffffffffffff16815260200190815260200160002060008282546101c09190610556565b92505081905550346000808282546101d89190610556565b925050819055507f252449aa0b7de4aef34faa5608272066c34f2cea678fa4ee8850380955ef09b63334604051610210929190610599565b60405180910390a1565b80600160003373ffffffffffffffffffffffffffffffffffffffff1673ffffffffffffffffffffffffffffffffffffffff16815260200190815260200160002054101561029c576040517f08c379a00000000000000000000000000000000000000000000000000000000081526004016102939061060e565b60405180910390fd5b80600160003373ffffffffffffffffffffffffffffffffffffffff1673ffffffffffffffffffffffffffffffffffffffff16815260200190815260200160002060008282546102eb919061062e565b925050819055503373ffffffffffffffffffffffffffffffffffffffff166108fc829081150290604051600060405180830381858888f19350505050158015610338573d6000803e3d6000fd5b508060008082825461034a919061062e565b925050819055507ffad10879470dbb69d36fd4817063d4d24960b3f59d7ebd6192dbc627e4bc13743382604051610382929190610599565b60405180910390a150565b6000819050919050565b6103a08161038d565b82525050565b60006020820190506103bb6000830184610397565b92915050565b600080fd5b600073ffffffffffffffffffffffffffffffffffffffff82169050919050565b60006103f1826103c6565b9050919050565b610401816103e6565b811461040c57600080fd5b50565b60008135905061041e816103f8565b92915050565b60006020828403121561043a576104396103c1565b5b60006104488482850161040f565b91505092915050565b61045a8161038d565b811461046557600080fd5b50565b60008135905061047781610451565b92915050565b600060208284031215610493576104926103c1565b5b60006104a184828501610468565b91505092915050565b600082825260208201905092915050565b7f416d6f756e74206d757374206d617463682076616c75652073656e7400000000600082015250565b60006104f1601c836104aa565b91506104fc826104bb565b602082019050919050565b60006020820190508181036000830152610520816104e4565b9050919050565b7f4e487b7100000000000000000000000000000000000000000000000000000000600052601160045260246000fd5b60006105618261038d565b915061056c8361038d565b925082820190508082111561058457610583610527565b5b92915050565b610593816103e6565b82525050565b60006040820190506105ae600083018561058a565b6105bb6020830184610397565b9392505050565b7f496e73756666696369656e742062616c616e6365000000000000000000000000600082015250565b60006105f86014836104aa565b9150610603826105c2565b602082019050919050565b60006020820190508181036000830152610627816105eb565b9050919050565b60006106398261038d565b91506106448361038d565b925082820390508181111561065c5761065b610527565b5b9291505056fea26469706673582212205a8fc101cd7de5f6826d765457484bd4dd3267446b2399ac531eb19d333bb8db64736f6c63430008160033",
  "linkReferences": {},
  "deployedLinkReferences": {}
}