{
  "_format": "hh-sol-artifact-1",
  "contractName": "unlockContract",
  "sourceName": "contracts/deployed/unlockContract.sol",
  "abi": [
    {
      "inputs": [
        {
          "internalType": "address",
          "name": "_admin",
          "type": "address"
        },
        {
          "internalType": "address",
          "name": "_wmbGateway",
          "type": "address"
        }
      ],
      "stateMutability": "nonpayable",
      "type": "constructor"
    },
    {
      "inputs": [],
      "name": "AccessControlBadConfirmation",
      "type": "error"
    },
    {
      "inputs": [
        {
          "internalType": "address",
          "name": "account",
          "type": "address"
        },
        {
          "internalType": "bytes32",
          "name": "neededRole",
          "type": "bytes32"
        }
      ],
      "name": "AccessControlUnauthorizedAccount",
      "type": "error"
    },
    {
      "inputs": [],
      "name": "InvalidInitialization",
      "type": "error"
    },
    {
      "inputs": [],
      "name": "NotInitializing",
      "type": "error"
    },
    {
      "anonymous": false,
      "inputs": [
        {
          "indexed": true,
          "internalType": "bytes32",
          "name": "messageId",
          "type": "bytes32"
        },
        {
          "indexed": true,
          "internalType": "uint256",
          "name": "fromChainId",
          "type": "uint256"
        },
        {
          "indexed": true,
          "internalType": "address",
          "name": "to",
          "type": "address"
        },
        {
          "indexed": false,
          "internalType": "uint256",
          "name": "amount",
          "type": "uint256"
        },
        {
          "indexed": false,
          "internalType": "address",
          "name": "fromSC",
          "type": "address"
        }
      ],
      "name": "CrossChainMint",
      "type": "event"
    },
    {
      "anonymous": false,
      "inputs": [
        {
          "indexed": false,
          "internalType": "uint64",
          "name": "version",
          "type": "uint64"
        }
      ],
      "name": "Initialized",
      "type": "event"
    },
    {
      "anonymous": false,
      "inputs": [
        {
          "indexed": true,
          "internalType": "bytes32",
          "name": "role",
          "type": "bytes32"
        },
        {
          "indexed": true,
          "internalType": "bytes32",
          "name": "previousAdminRole",
          "type": "bytes32"
        },
        {
          "indexed": true,
          "internalType": "bytes32",
          "name": "newAdminRole",
          "type": "bytes32"
        }
      ],
      "name": "RoleAdminChanged",
      "type": "event"
    },
    {
      "anonymous": false,
      "inputs": [
        {
          "indexed": true,
          "internalType": "bytes32",
          "name": "role",
          "type": "bytes32"
        },
        {
          "indexed": true,
          "internalType": "address",
          "name": "account",
          "type": "address"
        },
        {
          "indexed": true,
          "internalType": "address",
          "name": "sender",
          "type": "address"
        }
      ],
      "name": "RoleGranted",
      "type": "event"
    },
    {
      "anonymous": false,
      "inputs": [
        {
          "indexed": true,
          "internalType": "bytes32",
          "name": "role",
          "type": "bytes32"
        },
        {
          "indexed": true,
          "internalType": "address",
          "name": "account",
          "type": "address"
        },
        {
          "indexed": true,
          "internalType": "address",
          "name": "sender",
          "type": "address"
        }
      ],
      "name": "RoleRevoked",
      "type": "event"
    },
    {
      "anonymous": false,
      "inputs": [
        {
          "indexed": false,
          "internalType": "address",
          "name": "user",
          "type": "address"
        },
        {
          "indexed": false,
          "internalType": "uint256",
          "name": "amount",
          "type": "uint256"
        }
      ],
      "name": "coinsLocked",
      "type": "event"
    },
    {
      "inputs": [],
      "name": "DEFAULT_ADMIN_ROLE",
      "outputs": [
        {
          "internalType": "bytes32",
          "name": "",
          "type": "bytes32"
        }
      ],
      "stateMutability": "view",
      "type": "function"
    },
    {
      "inputs": [
        {
          "internalType": "address",
          "name": "user",
          "type": "address"
        }
      ],
      "name": "balanceOf",
      "outputs": [
        {
          "internalType": "uint256",
          "name": "",
          "type": "uint256"
        }
      ],
      "stateMutability": "view",
      "type": "function"
    },
    {
      "inputs": [
        {
          "internalType": "uint256",
          "name": "toChainId",
          "type": "uint256"
        },
        {
          "internalType": "address",
          "name": "toSC",
          "type": "address"
        },
        {
          "internalType": "address",
          "name": "toUser",
          "type": "address"
        },
        {
          "internalType": "uint256",
          "name": "gasLimit",
          "type": "uint256"
        }
      ],
      "name": "crossTo",
      "outputs": [],
      "stateMutability": "payable",
      "type": "function"
    },
    {
      "inputs": [
        {
          "internalType": "uint256",
          "name": "toChain",
          "type": "uint256"
        },
        {
          "internalType": "uint256",
          "name": "gasLimit",
          "type": "uint256"
        }
      ],
      "name": "estimateFee",
      "outputs": [
        {
          "internalType": "uint256",
          "name": "",
          "type": "uint256"
        }
      ],
      "stateMutability": "view",
      "type": "function"
    },
    {
      "inputs": [
        {
          "internalType": "bytes32",
          "name": "role",
          "type": "bytes32"
        }
      ],
      "name": "getRoleAdmin",
      "outputs": [
        {
          "internalType": "bytes32",
          "name": "",
          "type": "bytes32"
        }
      ],
      "stateMutability": "view",
      "type": "function"
    },
    {
      "inputs": [
        {
          "internalType": "bytes32",
          "name": "role",
          "type": "bytes32"
        },
        {
          "internalType": "address",
          "name": "account",
          "type": "address"
        }
      ],
      "name": "grantRole",
      "outputs": [],
      "stateMutability": "nonpayable",
      "type": "function"
    },
    {
      "inputs": [
        {
          "internalType": "bytes32",
          "name": "role",
          "type": "bytes32"
        },
        {
          "internalType": "address",
          "name": "account",
          "type": "address"
        }
      ],
      "name": "hasRole",
      "outputs": [
        {
          "internalType": "bool",
          "name": "",
          "type": "bool"
        }
      ],
      "stateMutability": "view",
      "type": "function"
    },
    {
      "inputs": [
        {
          "internalType": "address",
          "name": "admin",
          "type": "address"
        },
        {
          "internalType": "address",
          "name": "_wmbGateway",
          "type": "address"
        }
      ],
      "name": "initialize",
      "outputs": [],
      "stateMutability": "nonpayable",
      "type": "function"
    },
    {
      "inputs": [
        {
          "internalType": "bytes32",
          "name": "role",
          "type": "bytes32"
        },
        {
          "internalType": "address",
          "name": "callerConfirmation",
          "type": "address"
        }
      ],
      "name": "renounceRole",
      "outputs": [],
      "stateMutability": "nonpayable",
      "type": "function"
    },
    {
      "inputs": [
        {
          "internalType": "bytes32",
          "name": "role",
          "type": "bytes32"
        },
        {
          "internalType": "address",
          "name": "account",
          "type": "address"
        }
      ],
      "name": "revokeRole",
      "outputs": [],
      "stateMutability": "nonpayable",
      "type": "function"
    },
    {
      "inputs": [
        {
          "internalType": "uint256[]",
          "name": "fromChainIds",
          "type": "uint256[]"
        },
        {
          "internalType": "address[]",
          "name": "froms",
          "type": "address[]"
        },
        {
          "internalType": "bool[]",
          "name": "trusted",
          "type": "bool[]"
        }
      ],
      "name": "setTrustedRemotes",
      "outputs": [],
      "stateMutability": "nonpayable",
      "type": "function"
    },
    {
      "inputs": [
        {
          "internalType": "bytes4",
          "name": "interfaceId",
          "type": "bytes4"
        }
      ],
      "name": "supportsInterface",
      "outputs": [
        {
          "internalType": "bool",
          "name": "",
          "type": "bool"
        }
      ],
      "stateMutability": "view",
      "type": "function"
    },
    {
      "inputs": [],
      "name": "totalSupply",
      "outputs": [
        {
          "internalType": "uint256",
          "name": "",
          "type": "uint256"
        }
      ],
      "stateMutability": "view",
      "type": "function"
    },
    {
      "inputs": [
        {
          "internalType": "uint256",
          "name": "",
          "type": "uint256"
        },
        {
          "internalType": "address",
          "name": "",
          "type": "address"
        }
      ],
      "name": "trustedRemotes",
      "outputs": [
        {
          "internalType": "bool",
          "name": "",
          "type": "bool"
        }
      ],
      "stateMutability": "view",
      "type": "function"
    },
    {
      "inputs": [],
      "name": "wmbGateway",
      "outputs": [
        {
          "internalType": "address",
          "name": "",
          "type": "address"
        }
      ],
      "stateMutability": "view",
      "type": "function"
    },
    {
      "inputs": [
        {
          "internalType": "bytes",
          "name": "data",
          "type": "bytes"
        },
        {
          "internalType": "bytes32",
          "name": "messageId",
          "type": "bytes32"
        },
        {
          "internalType": "uint256",
          "name": "fromChainId",
          "type": "uint256"
        },
        {
          "internalType": "address",
          "name": "from",
          "type": "address"
        }
      ],
      "name": "wmbReceive",
      "outputs": [],
      "stateMutability": "nonpayable",
      "type": "function"
    }
  ],
  "bytecode": "0x60806040523480156200001157600080fd5b506040516200264038038062002640833981810160405281019062000037919062000446565b6200004982826200005160201b60201c565b50506200050b565b6000620000636200023f60201b60201c565b905060008160000160089054906101000a900460ff1615905060008260000160009054906101000a900467ffffffffffffffff1690506000808267ffffffffffffffff16148015620000b25750825b9050600060018367ffffffffffffffff16148015620000e8575060003073ffffffffffffffffffffffffffffffffffffffff163b145b905081158015620000f7575080155b156200012f576040517ff92ee8a900000000000000000000000000000000000000000000000000000000815260040160405180910390fd5b60018560000160006101000a81548167ffffffffffffffff021916908367ffffffffffffffff1602179055508315620001805760018560000160086101000a81548160ff0219169083151502179055505b620001956000801b886200026760201b60201c565b5085600160006101000a81548173ffffffffffffffffffffffffffffffffffffffff021916908373ffffffffffffffffffffffffffffffffffffffff1602179055508315620002365760008560000160086101000a81548160ff0219169083151502179055507fc7f505b2f371ae2175ee4913f4499e1f2633a7b5936321eed1cdaeb6115181d260016040516200022d9190620004ee565b60405180910390a15b50505050505050565b60007ff0c57e16840df040f15088dc2f81fe391c3923bec73e23a9662efc9c229c6a00905090565b60006200027b83836200036a60201b60201c565b6200035f57600160008085815260200190815260200160002060000160008473ffffffffffffffffffffffffffffffffffffffff1673ffffffffffffffffffffffffffffffffffffffff16815260200190815260200160002060006101000a81548160ff021916908315150217905550620002fb620003d460201b60201c565b73ffffffffffffffffffffffffffffffffffffffff168273ffffffffffffffffffffffffffffffffffffffff16847f2f8788117e7eff1d82e926ec794901d17c78024a50270940304540a733656f0d60405160405180910390a46001905062000364565b600090505b92915050565b600080600084815260200190815260200160002060000160008373ffffffffffffffffffffffffffffffffffffffff1673ffffffffffffffffffffffffffffffffffffffff16815260200190815260200160002060009054906101000a900460ff16905092915050565b600033905090565b600080fd5b600073ffffffffffffffffffffffffffffffffffffffff82169050919050565b60006200040e82620003e1565b9050919050565b620004208162000401565b81146200042c57600080fd5b50565b600081519050620004408162000415565b92915050565b6000806040838503121562000460576200045f620003dc565b5b600062000470858286016200042f565b925050602062000483858286016200042f565b9150509250929050565b6000819050919050565b600067ffffffffffffffff82169050919050565b6000819050919050565b6000620004d6620004d0620004ca846200048d565b620004ab565b62000497565b9050919050565b620004e881620004b5565b82525050565b6000602082019050620005056000830184620004dd565b92915050565b612125806200051b6000396000f3fe6080604052600436106100f25760003560e01c8063485cc9551161008a57806391d148541161005957806391d148541461032a578063a217fddf14610367578063d547741f14610392578063e3d4683b146103bb576100f2565b8063485cc9551461027f57806370a08231146102a85780637d2df3f4146102e55780637f34071d14610301576100f2565b80632f2ff15d116100c65780632f2ff15d146101d95780633088a5f91461020257806336568abe1461022d5780633a1a5b7614610256576100f2565b8062e1d8d0146100f757806301ffc9a71461013457806318160ddd14610171578063248a9ca31461019c575b600080fd5b34801561010357600080fd5b5061011e60048036038101906101199190611239565b6103f8565b60405161012b9190611288565b60405180910390f35b34801561014057600080fd5b5061015b600480360381019061015691906112fb565b61049f565b6040516101689190611343565b60405180910390f35b34801561017d57600080fd5b50610186610519565b6040516101939190611288565b60405180910390f35b3480156101a857600080fd5b506101c360048036038101906101be9190611394565b61051f565b6040516101d091906113d0565b60405180910390f35b3480156101e557600080fd5b5061020060048036038101906101fb9190611449565b61053e565b005b34801561020e57600080fd5b50610217610560565b6040516102249190611498565b60405180910390f35b34801561023957600080fd5b50610254600480360381019061024f9190611449565b610586565b005b34801561026257600080fd5b5061027d60048036038101906102789190611518565b610601565b005b34801561028b57600080fd5b506102a660048036038101906102a191906115a0565b610742565b005b3480156102b457600080fd5b506102cf60048036038101906102ca91906115e0565b610918565b6040516102dc9190611288565b60405180910390f35b6102ff60048036038101906102fa919061160d565b610961565b005b34801561030d57600080fd5b5061032860048036038101906103239190611776565b610b22565b005b34801561033657600080fd5b50610351600480360381019061034c9190611449565b610cba565b60405161035e9190611343565b60405180910390f35b34801561037357600080fd5b5061037c610d24565b60405161038991906113d0565b60405180910390f35b34801561039e57600080fd5b506103b960048036038101906103b49190611449565b610d2b565b005b3480156103c757600080fd5b506103e260048036038101906103dd919061182a565b610d4d565b6040516103ef9190611343565b60405180910390f35b6000600160009054906101000a900473ffffffffffffffffffffffffffffffffffffffff1673ffffffffffffffffffffffffffffffffffffffff1662e1d8d084846040518363ffffffff1660e01b815260040161045692919061186a565b602060405180830381865afa158015610473573d6000803e3d6000fd5b505050506040513d601f19601f8201168201806040525081019061049791906118a8565b905092915050565b60007f7965db0b000000000000000000000000000000000000000000000000000000007bffffffffffffffffffffffffffffffffffffffffffffffffffffffff1916827bffffffffffffffffffffffffffffffffffffffffffffffffffffffff19161480610512575061051182610d7c565b5b9050919050565b60035481565b6000806000838152602001908152602001600020600101549050919050565b6105478261051f565b61055081610de6565b61055a8383610dfa565b50505050565b600160009054906101000a900473ffffffffffffffffffffffffffffffffffffffff1681565b61058e610eeb565b73ffffffffffffffffffffffffffffffffffffffff168173ffffffffffffffffffffffffffffffffffffffff16146105f2576040517f6697b23200000000000000000000000000000000000000000000000000000000815260040160405180910390fd5b6105fc8282610ef3565b505050565b600160009054906101000a900473ffffffffffffffffffffffffffffffffffffffff1673ffffffffffffffffffffffffffffffffffffffff163373ffffffffffffffffffffffffffffffffffffffff1614610691576040517f08c379a000000000000000000000000000000000000000000000000000000000815260040161068890611958565b60405180910390fd5b6002600083815260200190815260200160002060008273ffffffffffffffffffffffffffffffffffffffff1673ffffffffffffffffffffffffffffffffffffffff16815260200190815260200160002060009054906101000a900460ff1661072e576040517f08c379a0000000000000000000000000000000000000000000000000000000008152600401610725906119c4565b60405180910390fd5b61073b8585858585610fe5565b5050505050565b600061074c6110c7565b905060008160000160089054906101000a900460ff1615905060008260000160009054906101000a900467ffffffffffffffff1690506000808267ffffffffffffffff1614801561079a5750825b9050600060018367ffffffffffffffff161480156107cf575060003073ffffffffffffffffffffffffffffffffffffffff163b145b9050811580156107dd575080155b15610814576040517ff92ee8a900000000000000000000000000000000000000000000000000000000815260040160405180910390fd5b60018560000160006101000a81548167ffffffffffffffff021916908367ffffffffffffffff16021790555083156108645760018560000160086101000a81548160ff0219169083151502179055505b6108716000801b88610dfa565b5085600160006101000a81548173ffffffffffffffffffffffffffffffffffffffff021916908373ffffffffffffffffffffffffffffffffffffffff160217905550831561090f5760008560000160086101000a81548160ff0219169083151502179055507fc7f505b2f371ae2175ee4913f4499e1f2633a7b5936321eed1cdaeb6115181d260016040516109069190611a3d565b60405180910390a15b50505050505050565b6000600460008373ffffffffffffffffffffffffffffffffffffffff1673ffffffffffffffffffffffffffffffffffffffff168152602001908152602001600020549050919050565b600034116109a4576040517f08c379a000000000000000000000000000000000000000000000000000000000815260040161099b90611aa4565b60405180910390fd5b34600460003373ffffffffffffffffffffffffffffffffffffffff1673ffffffffffffffffffffffffffffffffffffffff168152602001908152602001600020541015610a26576040517f08c379a0000000000000000000000000000000000000000000000000000000008152600401610a1d90611b36565b60405180910390fd5b6000610a3285836103f8565b905060008134610a429190611b85565b905080600460003373ffffffffffffffffffffffffffffffffffffffff1673ffffffffffffffffffffffffffffffffffffffff1681526020019081526020016000206000828254610a939190611bb9565b925050819055508060036000828254610aac9190611bb9565b92505081905550610ae086868684604051602001610acb929190611bed565b604051602081830303815290604052856110ef565b507f252449aa0b7de4aef34faa5608272066c34f2cea678fa4ee8850380955ef09b63334604051610b12929190611bed565b60405180910390a1505050505050565b610b2f6000801b33610cba565b610b6e576040517f08c379a0000000000000000000000000000000000000000000000000000000008152600401610b6590611c88565b60405180910390fd5b8383905086869050148015610b8857508181905084849050145b610bc7576040517f08c379a0000000000000000000000000000000000000000000000000000000008152600401610bbe90611cf4565b60405180910390fd5b60005b86869050811015610cb157828282818110610be857610be7611d14565b5b9050602002016020810190610bfd9190611d6f565b60026000898985818110610c1457610c13611d14565b5b9050602002013581526020019081526020016000206000878785818110610c3e57610c3d611d14565b5b9050602002016020810190610c5391906115e0565b73ffffffffffffffffffffffffffffffffffffffff1673ffffffffffffffffffffffffffffffffffffffff16815260200190815260200160002060006101000a81548160ff0219169083151502179055508080600101915050610bca565b50505050505050565b600080600084815260200190815260200160002060000160008373ffffffffffffffffffffffffffffffffffffffff1673ffffffffffffffffffffffffffffffffffffffff16815260200190815260200160002060009054906101000a900460ff16905092915050565b6000801b81565b610d348261051f565b610d3d81610de6565b610d478383610ef3565b50505050565b60026020528160005260406000206020528060005260406000206000915091509054906101000a900460ff1681565b60007f01ffc9a7000000000000000000000000000000000000000000000000000000007bffffffffffffffffffffffffffffffffffffffffffffffffffffffff1916827bffffffffffffffffffffffffffffffffffffffffffffffffffffffff1916149050919050565b610df781610df2610eeb565b61119e565b50565b6000610e068383610cba565b610ee057600160008085815260200190815260200160002060000160008473ffffffffffffffffffffffffffffffffffffffff1673ffffffffffffffffffffffffffffffffffffffff16815260200190815260200160002060006101000a81548160ff021916908315150217905550610e7d610eeb565b73ffffffffffffffffffffffffffffffffffffffff168273ffffffffffffffffffffffffffffffffffffffff16847f2f8788117e7eff1d82e926ec794901d17c78024a50270940304540a733656f0d60405160405180910390a460019050610ee5565b600090505b92915050565b600033905090565b6000610eff8383610cba565b15610fda57600080600085815260200190815260200160002060000160008473ffffffffffffffffffffffffffffffffffffffff1673ffffffffffffffffffffffffffffffffffffffff16815260200190815260200160002060006101000a81548160ff021916908315150217905550610f77610eeb565b73ffffffffffffffffffffffffffffffffffffffff168273ffffffffffffffffffffffffffffffffffffffff16847ff6391f5c32d9c69d2a47ea670b442974b53935d1edc7fd64eb21e047a839171b60405160405180910390a460019050610fdf565b600090505b92915050565b6000808686810190610ff79190611f1b565b50925092505080600460008473ffffffffffffffffffffffffffffffffffffffff1673ffffffffffffffffffffffffffffffffffffffff168152602001908152602001600020600082825461104c9190611bb9565b9250508190555080600360008282546110659190611bb9565b925050819055508173ffffffffffffffffffffffffffffffffffffffff1684867fe54144d90f48a9826fdec75d150b5bfc91c0752524eb604a5ffba496b6dd0aab84876040516110b6929190611f9e565b60405180910390a450505050505050565b60007ff0c57e16840df040f15088dc2f81fe391c3923bec73e23a9662efc9c229c6a00905090565b6000600160009054906101000a900473ffffffffffffffffffffffffffffffffffffffff1673ffffffffffffffffffffffffffffffffffffffff1663fe39827b838787876040518563ffffffff1660e01b815260040161115193929190612046565b60206040518083038185885af115801561116f573d6000803e3d6000fd5b50505050506040513d601f19601f820116820180604052508101906111949190612099565b9050949350505050565b6111a88282610cba565b6111eb5780826040517fe2517d3f0000000000000000000000000000000000000000000000000000000081526004016111e29291906120c6565b60405180910390fd5b5050565b6000604051905090565b600080fd5b600080fd5b6000819050919050565b61121681611203565b811461122157600080fd5b50565b6000813590506112338161120d565b92915050565b600080604083850312156112505761124f6111f9565b5b600061125e85828601611224565b925050602061126f85828601611224565b9150509250929050565b61128281611203565b82525050565b600060208201905061129d6000830184611279565b92915050565b60007fffffffff0000000000000000000000000000000000000000000000000000000082169050919050565b6112d8816112a3565b81146112e357600080fd5b50565b6000813590506112f5816112cf565b92915050565b600060208284031215611311576113106111f9565b5b600061131f848285016112e6565b91505092915050565b60008115159050919050565b61133d81611328565b82525050565b60006020820190506113586000830184611334565b92915050565b6000819050919050565b6113718161135e565b811461137c57600080fd5b50565b60008135905061138e81611368565b92915050565b6000602082840312156113aa576113a96111f9565b5b60006113b88482850161137f565b91505092915050565b6113ca8161135e565b82525050565b60006020820190506113e560008301846113c1565b92915050565b600073ffffffffffffffffffffffffffffffffffffffff82169050919050565b6000611416826113eb565b9050919050565b6114268161140b565b811461143157600080fd5b50565b6000813590506114438161141d565b92915050565b600080604083850312156114605761145f6111f9565b5b600061146e8582860161137f565b925050602061147f85828601611434565b9150509250929050565b6114928161140b565b82525050565b60006020820190506114ad6000830184611489565b92915050565b600080fd5b600080fd5b600080fd5b60008083601f8401126114d8576114d76114b3565b5b8235905067ffffffffffffffff8111156114f5576114f46114b8565b5b602083019150836001820283011115611511576115106114bd565b5b9250929050565b600080600080600060808688031215611534576115336111f9565b5b600086013567ffffffffffffffff811115611552576115516111fe565b5b61155e888289016114c2565b955095505060206115718882890161137f565b935050604061158288828901611224565b925050606061159388828901611434565b9150509295509295909350565b600080604083850312156115b7576115b66111f9565b5b60006115c585828601611434565b92505060206115d685828601611434565b9150509250929050565b6000602082840312156115f6576115f56111f9565b5b600061160484828501611434565b91505092915050565b60008060008060808587031215611627576116266111f9565b5b600061163587828801611224565b945050602061164687828801611434565b935050604061165787828801611434565b925050606061166887828801611224565b91505092959194509250565b60008083601f84011261168a576116896114b3565b5b8235905067ffffffffffffffff8111156116a7576116a66114b8565b5b6020830191508360208202830111156116c3576116c26114bd565b5b9250929050565b60008083601f8401126116e0576116df6114b3565b5b8235905067ffffffffffffffff8111156116fd576116fc6114b8565b5b602083019150836020820283011115611719576117186114bd565b5b9250929050565b60008083601f840112611736576117356114b3565b5b8235905067ffffffffffffffff811115611753576117526114b8565b5b60208301915083602082028301111561176f5761176e6114bd565b5b9250929050565b60008060008060008060608789031215611793576117926111f9565b5b600087013567ffffffffffffffff8111156117b1576117b06111fe565b5b6117bd89828a01611674565b9650965050602087013567ffffffffffffffff8111156117e0576117df6111fe565b5b6117ec89828a016116ca565b9450945050604087013567ffffffffffffffff81111561180f5761180e6111fe565b5b61181b89828a01611720565b92509250509295509295509295565b60008060408385031215611841576118406111f9565b5b600061184f85828601611224565b925050602061186085828601611434565b9150509250929050565b600060408201905061187f6000830185611279565b61188c6020830184611279565b9392505050565b6000815190506118a28161120d565b92915050565b6000602082840312156118be576118bd6111f9565b5b60006118cc84828501611893565b91505092915050565b600082825260208201905092915050565b7f576d624170703a204f6e6c7920574d4220676174657761792063616e2063616c60008201527f6c20746869732066756e6374696f6e0000000000000000000000000000000000602082015250565b6000611942602f836118d5565b915061194d826118e6565b604082019050919050565b6000602082019050818103600083015261197181611935565b9050919050565b7f576d624170703a2052656d6f7465206973206e6f742074727573746564000000600082015250565b60006119ae601d836118d5565b91506119b982611978565b602082019050919050565b600060208201905081810360008301526119dd816119a1565b9050919050565b6000819050919050565b600067ffffffffffffffff82169050919050565b6000819050919050565b6000611a27611a22611a1d846119e4565b611a02565b6119ee565b9050919050565b611a3781611a0c565b82525050565b6000602082019050611a526000830184611a2e565b92915050565b7f416d6f756e74206d757374206d617463682076616c75652073656e7400000000600082015250565b6000611a8e601c836118d5565b9150611a9982611a58565b602082019050919050565b60006020820190508181036000830152611abd81611a81565b9050919050565b7f416d6f756e7420746f207472616e736665722063616e6e6f742065786365656460008201527f206c6f636b656420616d6f756e74000000000000000000000000000000000000602082015250565b6000611b20602e836118d5565b9150611b2b82611ac4565b604082019050919050565b60006020820190508181036000830152611b4f81611b13565b9050919050565b7f4e487b7100000000000000000000000000000000000000000000000000000000600052601160045260246000fd5b6000611b9082611203565b9150611b9b83611203565b9250828203905081811115611bb357611bb2611b56565b5b92915050565b6000611bc482611203565b9150611bcf83611203565b9250828201905080821115611be757611be6611b56565b5b92915050565b6000604082019050611c026000830185611489565b611c0f6020830184611279565b9392505050565b7f576d624170703a206d75737420686176652061646d696e20726f6c6520746f2060008201527f73657420747275737465642072656d6f74657300000000000000000000000000602082015250565b6000611c726033836118d5565b9150611c7d82611c16565b604082019050919050565b60006020820190508181036000830152611ca181611c65565b9050919050565b7f576d624170703a20696e76616c696420696e7075740000000000000000000000600082015250565b6000611cde6015836118d5565b9150611ce982611ca8565b602082019050919050565b60006020820190508181036000830152611d0d81611cd1565b9050919050565b7f4e487b7100000000000000000000000000000000000000000000000000000000600052603260045260246000fd5b611d4c81611328565b8114611d5757600080fd5b50565b600081359050611d6981611d43565b92915050565b600060208284031215611d8557611d846111f9565b5b6000611d9384828501611d5a565b91505092915050565b6000611da7826113eb565b9050919050565b611db781611d9c565b8114611dc257600080fd5b50565b600081359050611dd481611dae565b92915050565b600080fd5b6000601f19601f8301169050919050565b7f4e487b7100000000000000000000000000000000000000000000000000000000600052604160045260246000fd5b611e2882611ddf565b810181811067ffffffffffffffff82111715611e4757611e46611df0565b5b80604052505050565b6000611e5a6111ef565b9050611e668282611e1f565b919050565b600067ffffffffffffffff821115611e8657611e85611df0565b5b611e8f82611ddf565b9050602081019050919050565b82818337600083830152505050565b6000611ebe611eb984611e6b565b611e50565b905082815260208101848484011115611eda57611ed9611dda565b5b611ee5848285611e9c565b509392505050565b600082601f830112611f0257611f016114b3565b5b8135611f12848260208601611eab565b91505092915050565b60008060008060808587031215611f3557611f346111f9565b5b6000611f4387828801611dc5565b9450506020611f5487828801611dc5565b9350506040611f6587828801611224565b925050606085013567ffffffffffffffff811115611f8657611f856111fe565b5b611f9287828801611eed565b91505092959194509250565b6000604082019050611fb36000830185611279565b611fc06020830184611489565b9392505050565b600081519050919050565b600082825260208201905092915050565b60005b83811015612001578082015181840152602081019050611fe6565b60008484015250505050565b600061201882611fc7565b6120228185611fd2565b9350612032818560208601611fe3565b61203b81611ddf565b840191505092915050565b600060608201905061205b6000830186611279565b6120686020830185611489565b818103604083015261207a818461200d565b9050949350505050565b60008151905061209381611368565b92915050565b6000602082840312156120af576120ae6111f9565b5b60006120bd84828501612084565b91505092915050565b60006040820190506120db6000830185611489565b6120e860208301846113c1565b939250505056fea2646970667358221220b2bcdb91964e36b2ecd507af4eed3a625bdcc09371938da3075dba9e7b56bb6364736f6c63430008160033",
  "linkReferences": {},
  "deployedLinkReferences": {}
}